{
  "_format": "hh-sol-artifact-1",
  "contractName": "ChristmasGame",
  "sourceName": "contracts/ChristmasGame.sol",
  "abi": [
    {
      "inputs": [
        {
          "internalType": "string[]",
          "name": "characterNames",
          "type": "string[]"
        },
        {
          "internalType": "string[]",
          "name": "characterImageURIs",
          "type": "string[]"
        },
        {
          "internalType": "uint256[]",
          "name": "characterJoyPoints",
          "type": "uint256[]"
        },
        {
          "internalType": "uint256[]",
          "name": "characterAttackDmg",
          "type": "uint256[]"
        },
        {
          "internalType": "string",
          "name": "bossName",
          "type": "string"
        },
        {
          "internalType": "string",
          "name": "bossImageURI",
          "type": "string"
        },
        {
          "internalType": "uint256",
          "name": "bossJoyPoints",
          "type": "uint256"
        },
        {
          "internalType": "uint256",
          "name": "bossAttackDamage",
          "type": "uint256"
        }
      ],
      "stateMutability": "nonpayable",
      "type": "constructor"
    },
    {
      "anonymous": false,
      "inputs": [
        {
          "indexed": true,
          "internalType": "address",
          "name": "owner",
          "type": "address"
        },
        {
          "indexed": true,
          "internalType": "address",
          "name": "approved",
          "type": "address"
        },
        {
          "indexed": true,
          "internalType": "uint256",
          "name": "tokenId",
          "type": "uint256"
        }
      ],
      "name": "Approval",
      "type": "event"
    },
    {
      "anonymous": false,
      "inputs": [
        {
          "indexed": true,
          "internalType": "address",
          "name": "owner",
          "type": "address"
        },
        {
          "indexed": true,
          "internalType": "address",
          "name": "operator",
          "type": "address"
        },
        {
          "indexed": false,
          "internalType": "bool",
          "name": "approved",
          "type": "bool"
        }
      ],
      "name": "ApprovalForAll",
      "type": "event"
    },
    {
      "anonymous": false,
      "inputs": [
        {
          "indexed": false,
          "internalType": "address",
          "name": "sender",
          "type": "address"
        },
        {
          "indexed": false,
          "internalType": "uint256",
          "name": "newBossHp",
          "type": "uint256"
        },
        {
          "indexed": false,
          "internalType": "uint256",
          "name": "newPlayerHp",
          "type": "uint256"
        },
        {
          "indexed": false,
          "internalType": "uint256",
          "name": "playerAttackResult",
          "type": "uint256"
        },
        {
          "indexed": false,
          "internalType": "uint256",
          "name": "bossAttackResult",
          "type": "uint256"
        }
      ],
      "name": "AttackComplete",
      "type": "event"
    },
    {
      "anonymous": false,
      "inputs": [
        {
          "indexed": false,
          "internalType": "address",
          "name": "sender",
          "type": "address"
        },
        {
          "indexed": false,
          "internalType": "uint256",
          "name": "tokenId",
          "type": "uint256"
        },
        {
          "indexed": false,
          "internalType": "uint256",
          "name": "characterIndex",
          "type": "uint256"
        }
      ],
      "name": "CharacterNFTMinted",
      "type": "event"
    },
    {
      "anonymous": false,
      "inputs": [
        {
          "indexed": true,
          "internalType": "address",
          "name": "from",
          "type": "address"
        },
        {
          "indexed": true,
          "internalType": "address",
          "name": "to",
          "type": "address"
        },
        {
          "indexed": true,
          "internalType": "uint256",
          "name": "tokenId",
          "type": "uint256"
        }
      ],
      "name": "Transfer",
      "type": "event"
    },
    {
      "inputs": [
        {
          "internalType": "address",
          "name": "to",
          "type": "address"
        },
        {
          "internalType": "uint256",
          "name": "tokenId",
          "type": "uint256"
        }
      ],
      "name": "approve",
      "outputs": [],
      "stateMutability": "nonpayable",
      "type": "function"
    },
    {
      "inputs": [],
      "name": "attackBoss",
      "outputs": [],
      "stateMutability": "nonpayable",
      "type": "function"
    },
    {
      "inputs": [
        {
          "internalType": "address",
          "name": "owner",
          "type": "address"
        }
      ],
      "name": "balanceOf",
      "outputs": [
        {
          "internalType": "uint256",
          "name": "",
          "type": "uint256"
        }
      ],
      "stateMutability": "view",
      "type": "function"
    },
    {
      "inputs": [],
      "name": "bigBoss",
      "outputs": [
        {
          "internalType": "string",
          "name": "name",
          "type": "string"
        },
        {
          "internalType": "string",
          "name": "imageURI",
          "type": "string"
        },
        {
          "internalType": "uint256",
          "name": "joyPoints",
          "type": "uint256"
        },
        {
          "internalType": "uint256",
          "name": "maxJoyPoints",
          "type": "uint256"
        },
        {
          "internalType": "uint256",
          "name": "attackDamage",
          "type": "uint256"
        }
      ],
      "stateMutability": "view",
      "type": "function"
    },
    {
      "inputs": [],
      "name": "checkIfUserHasNFT",
      "outputs": [
        {
          "components": [
            {
              "internalType": "uint256",
              "name": "characterIndex",
              "type": "uint256"
            },
            {
              "internalType": "string",
              "name": "name",
              "type": "string"
            },
            {
              "internalType": "string",
              "name": "imageURI",
              "type": "string"
            },
            {
              "internalType": "uint256",
              "name": "joyPoints",
              "type": "uint256"
            },
            {
              "internalType": "uint256",
              "name": "maxJoyPoints",
              "type": "uint256"
            },
            {
              "internalType": "uint256",
              "name": "attackDamage",
              "type": "uint256"
            },
            {
              "internalType": "uint256",
              "name": "tokenId",
              "type": "uint256"
            }
          ],
          "internalType": "struct ChristmasGame.CharacterAttributes",
          "name": "",
          "type": "tuple"
        }
      ],
      "stateMutability": "view",
      "type": "function"
    },
    {
      "inputs": [],
      "name": "getAllDefaultCharacters",
      "outputs": [
        {
          "components": [
            {
              "internalType": "uint256",
              "name": "characterIndex",
              "type": "uint256"
            },
            {
              "internalType": "string",
              "name": "name",
              "type": "string"
            },
            {
              "internalType": "string",
              "name": "imageURI",
              "type": "string"
            },
            {
              "internalType": "uint256",
              "name": "joyPoints",
              "type": "uint256"
            },
            {
              "internalType": "uint256",
              "name": "maxJoyPoints",
              "type": "uint256"
            },
            {
              "internalType": "uint256",
              "name": "attackDamage",
              "type": "uint256"
            },
            {
              "internalType": "uint256",
              "name": "tokenId",
              "type": "uint256"
            }
          ],
          "internalType": "struct ChristmasGame.CharacterAttributes[]",
          "name": "",
          "type": "tuple[]"
        }
      ],
      "stateMutability": "view",
      "type": "function"
    },
    {
      "inputs": [],
      "name": "getAllPlayers",
      "outputs": [
        {
          "internalType": "address[]",
          "name": "",
          "type": "address[]"
        },
        {
          "components": [
            {
              "internalType": "uint256",
              "name": "characterIndex",
              "type": "uint256"
            },
            {
              "internalType": "string",
              "name": "name",
              "type": "string"
            },
            {
              "internalType": "string",
              "name": "imageURI",
              "type": "string"
            },
            {
              "internalType": "uint256",
              "name": "joyPoints",
              "type": "uint256"
            },
            {
              "internalType": "uint256",
              "name": "maxJoyPoints",
              "type": "uint256"
            },
            {
              "internalType": "uint256",
              "name": "attackDamage",
              "type": "uint256"
            },
            {
              "internalType": "uint256",
              "name": "tokenId",
              "type": "uint256"
            }
          ],
          "internalType": "struct ChristmasGame.CharacterAttributes[]",
          "name": "",
          "type": "tuple[]"
        }
      ],
      "stateMutability": "view",
      "type": "function"
    },
    {
      "inputs": [
        {
          "internalType": "uint256",
          "name": "tokenId",
          "type": "uint256"
        }
      ],
      "name": "getApproved",
      "outputs": [
        {
          "internalType": "address",
          "name": "",
          "type": "address"
        }
      ],
      "stateMutability": "view",
      "type": "function"
    },
    {
      "inputs": [],
      "name": "getBigBoss",
      "outputs": [
        {
          "components": [
            {
              "internalType": "string",
              "name": "name",
              "type": "string"
            },
            {
              "internalType": "string",
              "name": "imageURI",
              "type": "string"
            },
            {
              "internalType": "uint256",
              "name": "joyPoints",
              "type": "uint256"
            },
            {
              "internalType": "uint256",
              "name": "maxJoyPoints",
              "type": "uint256"
            },
            {
              "internalType": "uint256",
              "name": "attackDamage",
              "type": "uint256"
            }
          ],
          "internalType": "struct ChristmasGame.BigBoss",
          "name": "",
          "type": "tuple"
        }
      ],
      "stateMutability": "view",
      "type": "function"
    },
    {
      "inputs": [
        {
          "internalType": "address",
          "name": "owner",
          "type": "address"
        },
        {
          "internalType": "address",
          "name": "operator",
          "type": "address"
        }
      ],
      "name": "isApprovedForAll",
      "outputs": [
        {
          "internalType": "bool",
          "name": "",
          "type": "bool"
        }
      ],
      "stateMutability": "view",
      "type": "function"
    },
    {
      "inputs": [
        {
          "internalType": "uint256",
          "name": "_characterIndex",
          "type": "uint256"
        }
      ],
      "name": "mintCharacterNFT",
      "outputs": [],
      "stateMutability": "nonpayable",
      "type": "function"
    },
    {
      "inputs": [],
      "name": "name",
      "outputs": [
        {
          "internalType": "string",
          "name": "",
          "type": "string"
        }
      ],
      "stateMutability": "view",
      "type": "function"
    },
    {
      "inputs": [
        {
          "internalType": "uint256",
          "name": "",
          "type": "uint256"
        }
      ],
      "name": "nftHolderAddresses",
      "outputs": [
        {
          "internalType": "address",
          "name": "",
          "type": "address"
        }
      ],
      "stateMutability": "view",
      "type": "function"
    },
    {
      "inputs": [
        {
          "internalType": "uint256",
          "name": "",
          "type": "uint256"
        }
      ],
      "name": "nftHolderAttributes",
      "outputs": [
        {
          "internalType": "uint256",
          "name": "characterIndex",
          "type": "uint256"
        },
        {
          "internalType": "string",
          "name": "name",
          "type": "string"
        },
        {
          "internalType": "string",
          "name": "imageURI",
          "type": "string"
        },
        {
          "internalType": "uint256",
          "name": "joyPoints",
          "type": "uint256"
        },
        {
          "internalType": "uint256",
          "name": "maxJoyPoints",
          "type": "uint256"
        },
        {
          "internalType": "uint256",
          "name": "attackDamage",
          "type": "uint256"
        },
        {
          "internalType": "uint256",
          "name": "tokenId",
          "type": "uint256"
        }
      ],
      "stateMutability": "view",
      "type": "function"
    },
    {
      "inputs": [],
      "name": "nftHolderCount",
      "outputs": [
        {
          "internalType": "uint256",
          "name": "",
          "type": "uint256"
        }
      ],
      "stateMutability": "view",
      "type": "function"
    },
    {
      "inputs": [
        {
          "internalType": "address",
          "name": "",
          "type": "address"
        }
      ],
      "name": "nftHolders",
      "outputs": [
        {
          "internalType": "uint256",
          "name": "",
          "type": "uint256"
        }
      ],
      "stateMutability": "view",
      "type": "function"
    },
    {
      "inputs": [
        {
          "internalType": "uint256",
          "name": "tokenId",
          "type": "uint256"
        }
      ],
      "name": "ownerOf",
      "outputs": [
        {
          "internalType": "address",
          "name": "",
          "type": "address"
        }
      ],
      "stateMutability": "view",
      "type": "function"
    },
    {
      "inputs": [
        {
          "internalType": "address",
          "name": "from",
          "type": "address"
        },
        {
          "internalType": "address",
          "name": "to",
          "type": "address"
        },
        {
          "internalType": "uint256",
          "name": "tokenId",
          "type": "uint256"
        }
      ],
      "name": "safeTransferFrom",
      "outputs": [],
      "stateMutability": "nonpayable",
      "type": "function"
    },
    {
      "inputs": [
        {
          "internalType": "address",
          "name": "from",
          "type": "address"
        },
        {
          "internalType": "address",
          "name": "to",
          "type": "address"
        },
        {
          "internalType": "uint256",
          "name": "tokenId",
          "type": "uint256"
        },
        {
          "internalType": "bytes",
          "name": "data",
          "type": "bytes"
        }
      ],
      "name": "safeTransferFrom",
      "outputs": [],
      "stateMutability": "nonpayable",
      "type": "function"
    },
    {
      "inputs": [
        {
          "internalType": "address",
          "name": "operator",
          "type": "address"
        },
        {
          "internalType": "bool",
          "name": "approved",
          "type": "bool"
        }
      ],
      "name": "setApprovalForAll",
      "outputs": [],
      "stateMutability": "nonpayable",
      "type": "function"
    },
    {
      "inputs": [
        {
          "internalType": "bytes4",
          "name": "interfaceId",
          "type": "bytes4"
        }
      ],
      "name": "supportsInterface",
      "outputs": [
        {
          "internalType": "bool",
          "name": "",
          "type": "bool"
        }
      ],
      "stateMutability": "view",
      "type": "function"
    },
    {
      "inputs": [],
      "name": "symbol",
      "outputs": [
        {
          "internalType": "string",
          "name": "",
          "type": "string"
        }
      ],
      "stateMutability": "view",
      "type": "function"
    },
    {
      "inputs": [
        {
          "internalType": "uint256",
          "name": "_tokenId",
          "type": "uint256"
        }
      ],
      "name": "tokenURI",
      "outputs": [
        {
          "internalType": "string",
          "name": "",
          "type": "string"
        }
      ],
      "stateMutability": "view",
      "type": "function"
    },
    {
      "inputs": [
        {
          "internalType": "address",
          "name": "from",
          "type": "address"
        },
        {
          "internalType": "address",
          "name": "to",
          "type": "address"
        },
        {
          "internalType": "uint256",
          "name": "tokenId",
          "type": "uint256"
        }
      ],
      "name": "transferFrom",
      "outputs": [],
      "stateMutability": "nonpayable",
      "type": "function"
    }
  ],
  "bytecode": "0x608060405260006012553480156200001657600080fd5b5060405162006a3b38038062006a3b83398181016040528101906200003c919062000aab565b6040518060400160405280601781526020017f4368726973746d6173204a6f79205370726561646572730000000000000000008152506040518060400160405280600481526020017f584d4153000000000000000000000000000000000000000000000000000000008152508160009081620000b9919062000e6f565b508060019081620000cb919062000e6f565b5050506040518060a0016040528085815260200184815260200183815260200183815260200182815250600d60008201518160000190816200010e919062000e6f565b50602082015181600101908162000126919062000e6f565b50604082015181600201556060820151816003015560808201518160040155905050620002a96040518060600160405280602a8152602001620069e5602a9139600d6000018054620001789062000c68565b80601f0160208091040260200160405190810160405280929190818152602001828054620001a69062000c68565b8015620001f75780601f10620001cb57610100808354040283529160200191620001f7565b820191906000526020600020905b815481529060010190602001808311620001d957829003601f168201915b5050505050600d60020154600d6001018054620002149062000c68565b80601f0160208091040260200160405190810160405280929190818152602001828054620002429062000c68565b8015620002935780601f10620002675761010080835404028352916020019162000293565b820191906000526020600020905b8154815290600101906020018083116200027557829003601f168201915b50505050506200062060201b620024a01760201c565b60005b8851811015620005fa5760076040518060e001604052808381526020018b8481518110620002df57620002de62000f56565b5b602002602001015181526020018a848151811062000302576200030162000f56565b5b6020026020010151815260200189848151811062000325576200032462000f56565b5b6020026020010151815260200189848151811062000348576200034762000f56565b5b602002602001015181526020018884815181106200036b576200036a62000f56565b5b6020026020010151815260200160008152509080600181540180825580915050600190039060005260206000209060070201600090919091909150600082015181600001556020820151816001019081620003c7919062000e6f565b506040820151816002019081620003df919062000e6f565b50606082015181600301556080820151816004015560a0820151816005015560c08201518160060155505060006007828154811062000423576200042262000f56565b5b90600052602060002090600702016040518060e001604052908160008201548152602001600182018054620004589062000c68565b80601f0160208091040260200160405190810160405280929190818152602001828054620004869062000c68565b8015620004d75780601f10620004ab57610100808354040283529160200191620004d7565b820191906000526020600020905b815481529060010190602001808311620004b957829003601f168201915b50505050508152602001600282018054620004f29062000c68565b80601f0160208091040260200160405190810160405280929190818152602001828054620005209062000c68565b8015620005715780601f10620005455761010080835404028352916020019162000571565b820191906000526020600020905b8154815290600101906020018083116200055357829003601f168201915b505050505081526020016003820154815260200160048201548152602001600582015481526020016006820154815250509050620005e26040518060600160405280602c815260200162006a0f602c91398260200151836060015184604001516200062060201b620024a01760201c565b50600181620005f2919062000fb4565b9050620002ac565b50620006126006620006cc60201b620025421760201c565b5050505050505050620010b4565b620006c6848484846040516024016200063d949392919062001052565b6040516020818303038152906040527f5d1a971a000000000000000000000000000000000000000000000000000000007bffffffffffffffffffffffffffffffffffffffffffffffffffffffff19166020820180517bffffffffffffffffffffffffffffffffffffffffffffffffffffffff8381831617835250505050620006e260201b60201c565b50505050565b6001816000016000828254019250508190555050565b60008151905060006a636f6e736f6c652e6c6f679050602083016000808483855afa5050505050565b6000604051905090565b600080fd5b600080fd5b600080fd5b6000601f19601f8301169050919050565b7f4e487b7100000000000000000000000000000000000000000000000000000000600052604160045260246000fd5b6200076f8262000724565b810181811067ffffffffffffffff8211171562000791576200079062000735565b5b80604052505050565b6000620007a66200070b565b9050620007b4828262000764565b919050565b600067ffffffffffffffff821115620007d757620007d662000735565b5b602082029050602081019050919050565b600080fd5b600080fd5b600067ffffffffffffffff82111562000810576200080f62000735565b5b6200081b8262000724565b9050602081019050919050565b60005b83811015620008485780820151818401526020810190506200082b565b60008484015250505050565b60006200086b6200086584620007f2565b6200079a565b9050828152602081018484840111156200088a5762000889620007ed565b5b6200089784828562000828565b509392505050565b600082601f830112620008b757620008b66200071f565b5b8151620008c984826020860162000854565b91505092915050565b6000620008e9620008e384620007b9565b6200079a565b905080838252602082019050602084028301858111156200090f576200090e620007e8565b5b835b818110156200095d57805167ffffffffffffffff8111156200093857620009376200071f565b5b8086016200094789826200089f565b8552602085019450505060208101905062000911565b5050509392505050565b600082601f8301126200097f576200097e6200071f565b5b815162000991848260208601620008d2565b91505092915050565b600067ffffffffffffffff821115620009b857620009b762000735565b5b602082029050602081019050919050565b6000819050919050565b620009de81620009c9565b8114620009ea57600080fd5b50565b600081519050620009fe81620009d3565b92915050565b600062000a1b62000a15846200099a565b6200079a565b9050808382526020820190506020840283018581111562000a415762000a40620007e8565b5b835b8181101562000a6e578062000a598882620009ed565b84526020840193505060208101905062000a43565b5050509392505050565b600082601f83011262000a905762000a8f6200071f565b5b815162000aa284826020860162000a04565b91505092915050565b600080600080600080600080610100898b03121562000acf5762000ace62000715565b5b600089015167ffffffffffffffff81111562000af05762000aef6200071a565b5b62000afe8b828c0162000967565b985050602089015167ffffffffffffffff81111562000b225762000b216200071a565b5b62000b308b828c0162000967565b975050604089015167ffffffffffffffff81111562000b545762000b536200071a565b5b62000b628b828c0162000a78565b965050606089015167ffffffffffffffff81111562000b865762000b856200071a565b5b62000b948b828c0162000a78565b955050608089015167ffffffffffffffff81111562000bb85762000bb76200071a565b5b62000bc68b828c016200089f565b94505060a089015167ffffffffffffffff81111562000bea5762000be96200071a565b5b62000bf88b828c016200089f565b93505060c062000c0b8b828c01620009ed565b92505060e062000c1e8b828c01620009ed565b9150509295985092959890939650565b600081519050919050565b7f4e487b7100000000000000000000000000000000000000000000000000000000600052602260045260246000fd5b6000600282049050600182168062000c8157607f821691505b60208210810362000c975762000c9662000c39565b5b50919050565b60008190508160005260206000209050919050565b60006020601f8301049050919050565b600082821b905092915050565b60006008830262000d017fffffffffffffffffffffffffffffffffffffffffffffffffffffffffffffffff8262000cc2565b62000d0d868362000cc2565b95508019841693508086168417925050509392505050565b6000819050919050565b600062000d5062000d4a62000d4484620009c9565b62000d25565b620009c9565b9050919050565b6000819050919050565b62000d6c8362000d2f565b62000d8462000d7b8262000d57565b84845462000ccf565b825550505050565b600090565b62000d9b62000d8c565b62000da881848462000d61565b505050565b5b8181101562000dd05762000dc460008262000d91565b60018101905062000dae565b5050565b601f82111562000e1f5762000de98162000c9d565b62000df48462000cb2565b8101602085101562000e04578190505b62000e1c62000e138562000cb2565b83018262000dad565b50505b505050565b600082821c905092915050565b600062000e446000198460080262000e24565b1980831691505092915050565b600062000e5f838362000e31565b9150826002028217905092915050565b62000e7a8262000c2e565b67ffffffffffffffff81111562000e965762000e9562000735565b5b62000ea2825462000c68565b62000eaf82828562000dd4565b600060209050601f83116001811462000ee7576000841562000ed2578287015190505b62000ede858262000e51565b86555062000f4e565b601f19841662000ef78662000c9d565b60005b8281101562000f215784890151825560018201915060208501945060208101905062000efa565b8683101562000f41578489015162000f3d601f89168262000e31565b8355505b6001600288020188555050505b505050505050565b7f4e487b7100000000000000000000000000000000000000000000000000000000600052603260045260246000fd5b7f4e487b7100000000000000000000000000000000000000000000000000000000600052601160045260246000fd5b600062000fc182620009c9565b915062000fce83620009c9565b925082820190508082111562000fe95762000fe862000f85565b5b92915050565b600082825260208201905092915050565b60006200100d8262000c2e565b62001019818562000fef565b93506200102b81856020860162000828565b620010368162000724565b840191505092915050565b6200104c81620009c9565b82525050565b600060808201905081810360008301526200106e818762001000565b9050818103602083015262001084818662001000565b905062001095604083018562001041565b8181036060830152620010a9818462001000565b905095945050505050565b61592180620010c46000396000f3fe608060405234801561001057600080fd5b50600436106101585760003560e01c806398da4c95116100c3578063c87b56dd1161007c578063c87b56dd146103f7578063c8cf27f414610427578063d4f24c5b14610445578063e985e9c51461044f578063efa1c4821461047f578063f8b81ef71461049e57610158565b806398da4c951461032b578063a22cb46514610361578063a9c326791461037d578063b88d4fde1461039f578063b953084e146103bb578063c52cc100146103d957610158565b806323b872dd1161011557806323b872dd1461024557806342842e0e146102615780636352211e1461027d57806370a08231146102ad5780637df124a1146102dd57806395d89b411461030d57610158565b806301ffc9a71461015d5780630665f9611461018d57806306fdde03146101ab578063081812fc146101c9578063095ea7b3146101f95780630fd7018114610215575b600080fd5b61017760048036038101906101729190613a49565b6104ba565b6040516101849190613a91565b60405180910390f35b61019561059c565b6040516101a29190613bd2565b60405180910390f35b6101b36106f8565b6040516101c09190613c3e565b60405180910390f35b6101e360048036038101906101de9190613c8c565b61078a565b6040516101f09190613cfa565b60405180910390f35b610213600480360381019061020e9190613d41565b6107d0565b005b61022f600480360381019061022a9190613c8c565b6108e7565b60405161023c9190613cfa565b60405180910390f35b61025f600480360381019061025a9190613d81565b610926565b005b61027b60048036038101906102769190613d81565b610986565b005b61029760048036038101906102929190613c8c565b6109a6565b6040516102a49190613cfa565b60405180910390f35b6102c760048036038101906102c29190613dd4565b610a2c565b6040516102d49190613e10565b60405180910390f35b6102f760048036038101906102f29190613dd4565b610ae3565b6040516103049190613e10565b60405180910390f35b610315610afb565b6040516103229190613c3e565b60405180910390f35b61034560048036038101906103409190613c8c565b610b8d565b6040516103589796959493929190613e2b565b60405180910390f35b61037b60048036038101906103769190613ed4565b610cdf565b005b610385610cf5565b604051610396959493929190613f14565b60405180910390f35b6103b960048036038101906103b491906140aa565b610e29565b005b6103c3610e8b565b6040516103d09190614292565b60405180910390f35b6103e1611040565b6040516103ee9190613e10565b60405180910390f35b610411600480360381019061040c9190613c8c565b611046565b60405161041e9190613c3e565b60405180910390f35b61042f61126b565b60405161043c9190614357565b60405180910390f35b61044d61144d565b005b61046960048036038101906104649190614379565b611c74565b6040516104769190613a91565b60405180910390f35b610487611d08565b604051610495929190614477565b60405180910390f35b6104b860048036038101906104b39190613c8c565b612041565b005b60007f80ac58cd000000000000000000000000000000000000000000000000000000007bffffffffffffffffffffffffffffffffffffffffffffffffffffffff1916827bffffffffffffffffffffffffffffffffffffffffffffffffffffffff1916148061058557507f5b5e139f000000000000000000000000000000000000000000000000000000007bffffffffffffffffffffffffffffffffffffffffffffffffffffffff1916827bffffffffffffffffffffffffffffffffffffffffffffffffffffffff1916145b80610595575061059482612558565b5b9050919050565b6105a4613971565b600d6040518060a00160405290816000820180546105c1906144dd565b80601f01602080910402602001604051908101604052809291908181526020018280546105ed906144dd565b801561063a5780601f1061060f5761010080835404028352916020019161063a565b820191906000526020600020905b81548152906001019060200180831161061d57829003601f168201915b50505050508152602001600182018054610653906144dd565b80601f016020809104026020016040519081016040528092919081815260200182805461067f906144dd565b80156106cc5780601f106106a1576101008083540402835291602001916106cc565b820191906000526020600020905b8154815290600101906020018083116106af57829003601f168201915b505050505081526020016002820154815260200160038201548152602001600482015481525050905090565b606060008054610707906144dd565b80601f0160208091040260200160405190810160405280929190818152602001828054610733906144dd565b80156107805780601f1061075557610100808354040283529160200191610780565b820191906000526020600020905b81548152906001019060200180831161076357829003601f168201915b5050505050905090565b6000610795826125c2565b6004600083815260200190815260200160002060009054906101000a900473ffffffffffffffffffffffffffffffffffffffff169050919050565b60006107db826109a6565b90508073ffffffffffffffffffffffffffffffffffffffff168373ffffffffffffffffffffffffffffffffffffffff160361084b576040517f08c379a000000000000000000000000000000000000000000000000000000000815260040161084290614580565b60405180910390fd5b8073ffffffffffffffffffffffffffffffffffffffff1661086a61260d565b73ffffffffffffffffffffffffffffffffffffffff16148061089957506108988161089361260d565b611c74565b5b6108d8576040517f08c379a00000000000000000000000000000000000000000000000000000000081526004016108cf90614612565b60405180910390fd5b6108e28383612615565b505050565b600a81815481106108f757600080fd5b906000526020600020016000915054906101000a900473ffffffffffffffffffffffffffffffffffffffff1681565b61093761093161260d565b826126ce565b610976576040517f08c379a000000000000000000000000000000000000000000000000000000000815260040161096d906146a4565b60405180910390fd5b610981838383612763565b505050565b6109a183838360405180602001604052806000815250610e29565b505050565b6000806109b283612a5c565b9050600073ffffffffffffffffffffffffffffffffffffffff168173ffffffffffffffffffffffffffffffffffffffff1603610a23576040517f08c379a0000000000000000000000000000000000000000000000000000000008152600401610a1a90614710565b60405180910390fd5b80915050919050565b60008073ffffffffffffffffffffffffffffffffffffffff168273ffffffffffffffffffffffffffffffffffffffff1603610a9c576040517f08c379a0000000000000000000000000000000000000000000000000000000008152600401610a93906147a2565b60405180910390fd5b600360008373ffffffffffffffffffffffffffffffffffffffff1673ffffffffffffffffffffffffffffffffffffffff168152602001908152602001600020549050919050565b60096020528060005260406000206000915090505481565b606060018054610b0a906144dd565b80601f0160208091040260200160405190810160405280929190818152602001828054610b36906144dd565b8015610b835780601f10610b5857610100808354040283529160200191610b83565b820191906000526020600020905b815481529060010190602001808311610b6657829003601f168201915b5050505050905090565b6008602052806000526040600020600091509050806000015490806001018054610bb6906144dd565b80601f0160208091040260200160405190810160405280929190818152602001828054610be2906144dd565b8015610c2f5780601f10610c0457610100808354040283529160200191610c2f565b820191906000526020600020905b815481529060010190602001808311610c1257829003601f168201915b505050505090806002018054610c44906144dd565b80601f0160208091040260200160405190810160405280929190818152602001828054610c70906144dd565b8015610cbd5780601f10610c9257610100808354040283529160200191610cbd565b820191906000526020600020905b815481529060010190602001808311610ca057829003601f168201915b5050505050908060030154908060040154908060050154908060060154905087565b610cf1610cea61260d565b8383612a99565b5050565b600d806000018054610d06906144dd565b80601f0160208091040260200160405190810160405280929190818152602001828054610d32906144dd565b8015610d7f5780601f10610d5457610100808354040283529160200191610d7f565b820191906000526020600020905b815481529060010190602001808311610d6257829003601f168201915b505050505090806001018054610d94906144dd565b80601f0160208091040260200160405190810160405280929190818152602001828054610dc0906144dd565b8015610e0d5780601f10610de257610100808354040283529160200191610e0d565b820191906000526020600020905b815481529060010190602001808311610df057829003601f168201915b5050505050908060020154908060030154908060040154905085565b610e3a610e3461260d565b836126ce565b610e79576040517f08c379a0000000000000000000000000000000000000000000000000000000008152600401610e70906146a4565b60405180910390fd5b610e8584848484612c05565b50505050565b60606007805480602002602001604051908101604052809291908181526020016000905b8282101561103757838290600052602060002090600702016040518060e001604052908160008201548152602001600182018054610eec906144dd565b80601f0160208091040260200160405190810160405280929190818152602001828054610f18906144dd565b8015610f655780601f10610f3a57610100808354040283529160200191610f65565b820191906000526020600020905b815481529060010190602001808311610f4857829003601f168201915b50505050508152602001600282018054610f7e906144dd565b80601f0160208091040260200160405190810160405280929190818152602001828054610faa906144dd565b8015610ff75780601f10610fcc57610100808354040283529160200191610ff7565b820191906000526020600020905b815481529060010190602001808311610fda57829003601f168201915b5050505050815260200160038201548152602001600482015481526020016005820154815260200160068201548152505081526020019060010190610eaf565b50505050905090565b600c5481565b60606000600860008481526020019081526020016000206040518060e001604052908160008201548152602001600182018054611082906144dd565b80601f01602080910402602001604051908101604052809291908181526020018280546110ae906144dd565b80156110fb5780601f106110d0576101008083540402835291602001916110fb565b820191906000526020600020905b8154815290600101906020018083116110de57829003601f168201915b50505050508152602001600282018054611114906144dd565b80601f0160208091040260200160405190810160405280929190818152602001828054611140906144dd565b801561118d5780601f106111625761010080835404028352916020019161118d565b820191906000526020600020905b81548152906001019060200180831161117057829003601f168201915b50505050508152602001600382015481526020016004820154815260200160058201548152602001600682015481525050905060006111cf8260600151612c61565b905060006111e08360800151612c61565b905060006111f18460a00151612c61565b90506000611237856020015161120689612c61565b876040015187878760405160200161122396959493929190614ad0565b604051602081830303815290604052612d2f565b905060008160405160200161124c9190614bc1565b6040516020818303038152906040529050809650505050505050919050565b6112736139a0565b6000600960003373ffffffffffffffffffffffffffffffffffffffff1673ffffffffffffffffffffffffffffffffffffffff168152602001908152602001600020549050600081111561143c57600860008281526020019081526020016000206040518060e0016040529081600082015481526020016001820180546112f8906144dd565b80601f0160208091040260200160405190810160405280929190818152602001828054611324906144dd565b80156113715780601f1061134657610100808354040283529160200191611371565b820191906000526020600020905b81548152906001019060200180831161135457829003601f168201915b5050505050815260200160028201805461138a906144dd565b80601f01602080910402602001604051908101604052809291908181526020018280546113b6906144dd565b80156114035780601f106113d857610100808354040283529160200191611403565b820191906000526020600020905b8154815290600101906020018083116113e657829003601f168201915b5050505050815260200160038201548152602001600482015481526020016005820154815260200160068201548152505091505061144a565b6114446139a0565b80925050505b90565b6000600960003373ffffffffffffffffffffffffffffffffffffffff1673ffffffffffffffffffffffffffffffffffffffff16815260200190815260200160002054905060006008600083815260200190815260200160002090506115606040518060600160405280603c8152602001615854603c91398260010180546114d3906144dd565b80601f01602080910402602001604051908101604052809291908181526020018280546114ff906144dd565b801561154c5780601f106115215761010080835404028352916020019161154c565b820191906000526020600020905b81548152906001019060200180831161152f57829003601f168201915b505050505083600301548460050154612ec6565b6116386040518060400160405280601b81526020017f426f737320257320686173202573204a5020616e642025732041440000000000815250600d60000180546115a9906144dd565b80601f01602080910402602001604051908101604052809291908181526020018280546115d5906144dd565b80156116225780601f106115f757610100808354040283529160200191611622565b820191906000526020600020905b81548152906001019060200180831161160557829003601f168201915b5050505050600d60020154600d60040154612ec6565b600081600301541161167f576040517f08c379a000000000000000000000000000000000000000000000000000000000815260040161167690614c55565b60405180910390fd5b6000600d60020154116116c7576040517f08c379a00000000000000000000000000000000000000000000000000000000081526004016116be90614ce7565b60405180910390fd5b6000808260050154600d60020154101561172d576000600d600201819055506117246040518060400160405280601181526020017f54686520626f7373206973206465616421000000000000000000000000000000815250612f68565b60039150611979565b60426117396064613001565b11156118a8578260050154600d600201546117549190614d36565b600d6002018190555061189f60405180606001604052806024815260200161583060249139846001018054611788906144dd565b80601f01602080910402602001604051908101604052809291908181526020018280546117b4906144dd565b80156118015780601f106117d657610100808354040283529160200191611801565b820191906000526020600020905b8154815290600101906020018083116117e457829003601f168201915b5050505050600d6000018054611816906144dd565b80601f0160208091040260200160405190810160405280929190818152602001828054611842906144dd565b801561188f5780601f106118645761010080835404028352916020019161188f565b820191906000526020600020905b81548152906001019060200180831161187257829003601f168201915b5050505050600d6002015461305d565b60019150611978565b6119736040518060400160405280600b81526020017f2573206d6973736564210a0000000000000000000000000000000000000000008152508460010180546118f0906144dd565b80601f016020809104026020016040519081016040528092919081815260200182805461191c906144dd565b80156119695780601f1061193e57610100808354040283529160200191611969565b820191906000526020600020905b81548152906001019060200180831161194c57829003601f168201915b50505050506130ff565b600291505b5b600d60040154836003015410156119db57600083600301819055506119d26040518060400160405280601381526020017f54686520706c6179657220697320646561642100000000000000000000000000815250612f68565b60039050611c26565b60326119e76064613001565b1115611b5457600d600401548360030154611a029190614d36565b8360030181905550611b4b6040518060600160405280602e81526020016158be602e9139600d6000018054611a36906144dd565b80601f0160208091040260200160405190810160405280929190818152602001828054611a62906144dd565b8015611aaf5780601f10611a8457610100808354040283529160200191611aaf565b820191906000526020600020905b815481529060010190602001808311611a9257829003601f168201915b5050505050856001018054611ac3906144dd565b80601f0160208091040260200160405190810160405280929190818152602001828054611aef906144dd565b8015611b3c5780601f10611b1157610100808354040283529160200191611b3c565b820191906000526020600020905b815481529060010190602001808311611b1f57829003601f168201915b5050505050866003015461305d565b60019050611c25565b611c206040518060400160405280601081526020017f426f7373202573206d6973736564210a00000000000000000000000000000000815250600d6000018054611b9d906144dd565b80601f0160208091040260200160405190810160405280929190818152602001828054611bc9906144dd565b8015611c165780601f10611beb57610100808354040283529160200191611c16565b820191906000526020600020905b815481529060010190602001808311611bf957829003601f168201915b50505050506130ff565b600290505b5b7fbcfb3d0af56b3d54985b1a7fdab72e634ea6c430c7143d77492c431bb2081b0c33600d6002015485600301548585604051611c66959493929190614d6a565b60405180910390a150505050565b6000600560008473ffffffffffffffffffffffffffffffffffffffff1673ffffffffffffffffffffffffffffffffffffffff16815260200190815260200160002060008373ffffffffffffffffffffffffffffffffffffffff1673ffffffffffffffffffffffffffffffffffffffff16815260200190815260200160002060009054906101000a900460ff16905092915050565b6060806000600a8054905067ffffffffffffffff811115611d2c57611d2b613f7f565b5b604051908082528060200260200182016040528015611d6557816020015b611d526139a0565b815260200190600190039081611d4a5790505b50905060005b600a80549050811015611fac576000600a8281548110611d8e57611d8d614dbd565b5b9060005260206000200160009054906101000a900473ffffffffffffffffffffffffffffffffffffffff1690506000600960008373ffffffffffffffffffffffffffffffffffffffff1673ffffffffffffffffffffffffffffffffffffffff1681526020019081526020016000205490506000600860008381526020019081526020016000206040518060e001604052908160008201548152602001600182018054611e39906144dd565b80601f0160208091040260200160405190810160405280929190818152602001828054611e65906144dd565b8015611eb25780601f10611e8757610100808354040283529160200191611eb2565b820191906000526020600020905b815481529060010190602001808311611e9557829003601f168201915b50505050508152602001600282018054611ecb906144dd565b80601f0160208091040260200160405190810160405280929190818152602001828054611ef7906144dd565b8015611f445780601f10611f1957610100808354040283529160200191611f44565b820191906000526020600020905b815481529060010190602001808311611f2757829003601f168201915b50505050508152602001600382015481526020016004820154815260200160058201548152602001600682015481525050905080858581518110611f8b57611f8a614dbd565b5b60200260200101819052505050508080611fa490614dec565b915050611d6b565b50600a818180548060200260200160405190810160405280929190818152602001828054801561203157602002820191906000526020600020905b8160009054906101000a900473ffffffffffffffffffffffffffffffffffffffff1673ffffffffffffffffffffffffffffffffffffffff1681526020019060010190808311611fe7575b5050505050915092509250509091565b600061204d600661319b565b905061205933826131a9565b6040518060e001604052808381526020016007848154811061207e5761207d614dbd565b5b9060005260206000209060070201600101805461209a906144dd565b80601f01602080910402602001604051908101604052809291908181526020018280546120c6906144dd565b80156121135780601f106120e857610100808354040283529160200191612113565b820191906000526020600020905b8154815290600101906020018083116120f657829003601f168201915b505050505081526020016007848154811061213157612130614dbd565b5b9060005260206000209060070201600201805461214d906144dd565b80601f0160208091040260200160405190810160405280929190818152602001828054612179906144dd565b80156121c65780601f1061219b576101008083540402835291602001916121c6565b820191906000526020600020905b8154815290600101906020018083116121a957829003601f168201915b50505050508152602001600784815481106121e4576121e3614dbd565b5b90600052602060002090600702016003015481526020016007848154811061220f5761220e614dbd565b5b90600052602060002090600702016004015481526020016007848154811061223a57612239614dbd565b5b906000526020600020906007020160050154815260200182815250600860008381526020019081526020016000206000820151816000015560208201518160010190816122879190614fe0565b50604082015181600201908161229d9190614fe0565b50606082015181600301556080820151816004015560a0820151816005015560c082015181600601559050506122ec6040518060600160405280602e8152602001615890602e913982846131c7565b80600960003373ffffffffffffffffffffffffffffffffffffffff1673ffffffffffffffffffffffffffffffffffffffff16815260200190815260200160002081905550600b60003373ffffffffffffffffffffffffffffffffffffffff1673ffffffffffffffffffffffffffffffffffffffff16815260200190815260200160002060009054906101000a900460ff1661245757600a339080600181540180825580915050600190039060005260206000200160009091909190916101000a81548173ffffffffffffffffffffffffffffffffffffffff021916908373ffffffffffffffffffffffffffffffffffffffff1602179055506001600b60003373ffffffffffffffffffffffffffffffffffffffff1673ffffffffffffffffffffffffffffffffffffffff16815260200190815260200160002060006101000a81548160ff0219169083151502179055506001600c600082825461244f91906150b2565b925050819055505b6124616006612542565b7f4bc303fd457a97b4691b9af582ce71868a3d258638c8d4f8c60988a0f0bfb8cd338284604051612494939291906150e6565b60405180910390a15050565b61253c848484846040516024016124ba949392919061511d565b6040516020818303038152906040527f5d1a971a000000000000000000000000000000000000000000000000000000007bffffffffffffffffffffffffffffffffffffffffffffffffffffffff19166020820180517bffffffffffffffffffffffffffffffffffffffffffffffffffffffff8381831617835250505050613266565b50505050565b6001816000016000828254019250508190555050565b60007f01ffc9a7000000000000000000000000000000000000000000000000000000007bffffffffffffffffffffffffffffffffffffffffffffffffffffffff1916827bffffffffffffffffffffffffffffffffffffffffffffffffffffffff1916149050919050565b6125cb8161328f565b61260a576040517f08c379a000000000000000000000000000000000000000000000000000000000815260040161260190614710565b60405180910390fd5b50565b600033905090565b816004600083815260200190815260200160002060006101000a81548173ffffffffffffffffffffffffffffffffffffffff021916908373ffffffffffffffffffffffffffffffffffffffff160217905550808273ffffffffffffffffffffffffffffffffffffffff16612688836109a6565b73ffffffffffffffffffffffffffffffffffffffff167f8c5be1e5ebec7d5bd14f71427d1e84f3dd0314c0f7b2291e5b200ac8c7c3b92560405160405180910390a45050565b6000806126da836109a6565b90508073ffffffffffffffffffffffffffffffffffffffff168473ffffffffffffffffffffffffffffffffffffffff16148061271c575061271b8185611c74565b5b8061275a57508373ffffffffffffffffffffffffffffffffffffffff166127428461078a565b73ffffffffffffffffffffffffffffffffffffffff16145b91505092915050565b8273ffffffffffffffffffffffffffffffffffffffff16612783826109a6565b73ffffffffffffffffffffffffffffffffffffffff16146127d9576040517f08c379a00000000000000000000000000000000000000000000000000000000081526004016127d0906151e9565b60405180910390fd5b600073ffffffffffffffffffffffffffffffffffffffff168273ffffffffffffffffffffffffffffffffffffffff1603612848576040517f08c379a000000000000000000000000000000000000000000000000000000000815260040161283f9061527b565b60405180910390fd5b61285583838360016132d0565b8273ffffffffffffffffffffffffffffffffffffffff16612875826109a6565b73ffffffffffffffffffffffffffffffffffffffff16146128cb576040517f08c379a00000000000000000000000000000000000000000000000000000000081526004016128c2906151e9565b60405180910390fd5b6004600082815260200190815260200160002060006101000a81549073ffffffffffffffffffffffffffffffffffffffff02191690556001600360008573ffffffffffffffffffffffffffffffffffffffff1673ffffffffffffffffffffffffffffffffffffffff168152602001908152602001600020600082825403925050819055506001600360008473ffffffffffffffffffffffffffffffffffffffff1673ffffffffffffffffffffffffffffffffffffffff16815260200190815260200160002060008282540192505081905550816002600083815260200190815260200160002060006101000a81548173ffffffffffffffffffffffffffffffffffffffff021916908373ffffffffffffffffffffffffffffffffffffffff160217905550808273ffffffffffffffffffffffffffffffffffffffff168473ffffffffffffffffffffffffffffffffffffffff167fddf252ad1be2c89b69c2b068fc378daa952ba7f163c4a11628f55a4df523b3ef60405160405180910390a4612a5783838360016133f6565b505050565b60006002600083815260200190815260200160002060009054906101000a900473ffffffffffffffffffffffffffffffffffffffff169050919050565b8173ffffffffffffffffffffffffffffffffffffffff168373ffffffffffffffffffffffffffffffffffffffff1603612b07576040517f08c379a0000000000000000000000000000000000000000000000000000000008152600401612afe906152e7565b60405180910390fd5b80600560008573ffffffffffffffffffffffffffffffffffffffff1673ffffffffffffffffffffffffffffffffffffffff16815260200190815260200160002060008473ffffffffffffffffffffffffffffffffffffffff1673ffffffffffffffffffffffffffffffffffffffff16815260200190815260200160002060006101000a81548160ff0219169083151502179055508173ffffffffffffffffffffffffffffffffffffffff168373ffffffffffffffffffffffffffffffffffffffff167f17307eab39ab6107e8899845ad3d59bd9653f200f220920489ca2b5937696c3183604051612bf89190613a91565b60405180910390a3505050565b612c10848484612763565b612c1c848484846133fc565b612c5b576040517f08c379a0000000000000000000000000000000000000000000000000000000008152600401612c5290615379565b60405180910390fd5b50505050565b606060006001612c7084613583565b01905060008167ffffffffffffffff811115612c8f57612c8e613f7f565b5b6040519080825280601f01601f191660200182016040528015612cc15781602001600182028036833780820191505090505b509050600082602001820190505b600115612d24578080600190039150507f3031323334353637383961626364656600000000000000000000000000000000600a86061a8153600a8581612d1857612d17615399565b5b04945060008503612ccf575b819350505050919050565b606060008251905060008103612d575760405180602001604052806000815250915050612ec1565b60006003600283612d6891906150b2565b612d7291906153c8565b6004612d7e91906153f9565b90506000602082612d8f91906150b2565b67ffffffffffffffff811115612da857612da7613f7f565b5b6040519080825280601f01601f191660200182016040528015612dda5781602001600182028036833780820191505090505b50905060006040518060600160405280604081526020016157f0604091399050600181016020830160005b86811015612e7e5760038101905062ffffff818a015116603f8160121c168401518060081b905060ff603f83600c1c1686015116810190508060081b905060ff603f8360061c1686015116810190508060081b905060ff603f831686015116810190508060e01b90508084526004840193505050612e05565b506003860660018114612e985760028114612ea857612eb3565b613d3d60f01b6002830352612eb3565b603d60f81b60018303525b508484525050819450505050505b919050565b612f6284848484604051602401612ee0949392919061543b565b6040516020818303038152906040527ff45d7d2c000000000000000000000000000000000000000000000000000000007bffffffffffffffffffffffffffffffffffffffffffffffffffffffff19166020820180517bffffffffffffffffffffffffffffffffffffffffffffffffffffffff8381831617835250505050613266565b50505050565b612ffe81604051602401612f7c9190613c3e565b6040516020818303038152906040527f41304fac000000000000000000000000000000000000000000000000000000007bffffffffffffffffffffffffffffffffffffffffffffffffffffffff19166020820180517bffffffffffffffffffffffffffffffffffffffffffffffffffffffff8381831617835250505050613266565b50565b60006012600081548092919061301690614dec565b9190505550814233601254604051602001613033939291906154f7565b6040516020818303038152906040528051906020012060001c6130569190615534565b9050919050565b6130f9848484846040516024016130779493929190615565565b6040516020818303038152906040527f8eafb02b000000000000000000000000000000000000000000000000000000007bffffffffffffffffffffffffffffffffffffffffffffffffffffffff19166020820180517bffffffffffffffffffffffffffffffffffffffffffffffffffffffff8381831617835250505050613266565b50505050565b61319782826040516024016131159291906155bf565b6040516020818303038152906040527f4b5c4277000000000000000000000000000000000000000000000000000000007bffffffffffffffffffffffffffffffffffffffffffffffffffffffff19166020820180517bffffffffffffffffffffffffffffffffffffffffffffffffffffffff8381831617835250505050613266565b5050565b600081600001549050919050565b6131c38282604051806020016040528060008152506136d6565b5050565b6132618383836040516024016131df939291906155f6565b6040516020818303038152906040527fca47c4eb000000000000000000000000000000000000000000000000000000007bffffffffffffffffffffffffffffffffffffffffffffffffffffffff19166020820180517bffffffffffffffffffffffffffffffffffffffffffffffffffffffff8381831617835250505050613266565b505050565b60008151905060006a636f6e736f6c652e6c6f679050602083016000808483855afa5050505050565b60008073ffffffffffffffffffffffffffffffffffffffff166132b183612a5c565b73ffffffffffffffffffffffffffffffffffffffff1614159050919050565b60018111156133f057600073ffffffffffffffffffffffffffffffffffffffff168473ffffffffffffffffffffffffffffffffffffffff16146133645780600360008673ffffffffffffffffffffffffffffffffffffffff1673ffffffffffffffffffffffffffffffffffffffff168152602001908152602001600020600082825461335c9190614d36565b925050819055505b600073ffffffffffffffffffffffffffffffffffffffff168373ffffffffffffffffffffffffffffffffffffffff16146133ef5780600360008573ffffffffffffffffffffffffffffffffffffffff1673ffffffffffffffffffffffffffffffffffffffff16815260200190815260200160002060008282546133e791906150b2565b925050819055505b5b50505050565b50505050565b600061341d8473ffffffffffffffffffffffffffffffffffffffff16613731565b15613576578373ffffffffffffffffffffffffffffffffffffffff1663150b7a0261344661260d565b8786866040518563ffffffff1660e01b81526004016134689493929190615689565b6020604051808303816000875af19250505080156134a457506040513d601f19601f820116820180604052508101906134a191906156ea565b60015b613526573d80600081146134d4576040519150601f19603f3d011682016040523d82523d6000602084013e6134d9565b606091505b50600081510361351e576040517f08c379a000000000000000000000000000000000000000000000000000000000815260040161351590615379565b60405180910390fd5b805181602001fd5b63150b7a0260e01b7bffffffffffffffffffffffffffffffffffffffffffffffffffffffff1916817bffffffffffffffffffffffffffffffffffffffffffffffffffffffff19161491505061357b565b600190505b949350505050565b600080600090507a184f03e93ff9f4daa797ed6e38ed64bf6a1f01000000000000000083106135e1577a184f03e93ff9f4daa797ed6e38ed64bf6a1f01000000000000000083816135d7576135d6615399565b5b0492506040810190505b6d04ee2d6d415b85acef8100000000831061361e576d04ee2d6d415b85acef8100000000838161361457613613615399565b5b0492506020810190505b662386f26fc10000831061364d57662386f26fc10000838161364357613642615399565b5b0492506010810190505b6305f5e1008310613676576305f5e100838161366c5761366b615399565b5b0492506008810190505b612710831061369b57612710838161369157613690615399565b5b0492506004810190505b606483106136be57606483816136b4576136b3615399565b5b0492506002810190505b600a83106136cd576001810190505b80915050919050565b6136e08383613754565b6136ed60008484846133fc565b61372c576040517f08c379a000000000000000000000000000000000000000000000000000000000815260040161372390615379565b60405180910390fd5b505050565b6000808273ffffffffffffffffffffffffffffffffffffffff163b119050919050565b600073ffffffffffffffffffffffffffffffffffffffff168273ffffffffffffffffffffffffffffffffffffffff16036137c3576040517f08c379a00000000000000000000000000000000000000000000000000000000081526004016137ba90615763565b60405180910390fd5b6137cc8161328f565b1561380c576040517f08c379a0000000000000000000000000000000000000000000000000000000008152600401613803906157cf565b60405180910390fd5b61381a6000838360016132d0565b6138238161328f565b15613863576040517f08c379a000000000000000000000000000000000000000000000000000000000815260040161385a906157cf565b60405180910390fd5b6001600360008473ffffffffffffffffffffffffffffffffffffffff1673ffffffffffffffffffffffffffffffffffffffff16815260200190815260200160002060008282540192505081905550816002600083815260200190815260200160002060006101000a81548173ffffffffffffffffffffffffffffffffffffffff021916908373ffffffffffffffffffffffffffffffffffffffff160217905550808273ffffffffffffffffffffffffffffffffffffffff16600073ffffffffffffffffffffffffffffffffffffffff167fddf252ad1be2c89b69c2b068fc378daa952ba7f163c4a11628f55a4df523b3ef60405160405180910390a461396d6000838360016133f6565b5050565b6040518060a0016040528060608152602001606081526020016000815260200160008152602001600081525090565b6040518060e00160405280600081526020016060815260200160608152602001600081526020016000815260200160008152602001600081525090565b6000604051905090565b600080fd5b600080fd5b60007fffffffff0000000000000000000000000000000000000000000000000000000082169050919050565b613a26816139f1565b8114613a3157600080fd5b50565b600081359050613a4381613a1d565b92915050565b600060208284031215613a5f57613a5e6139e7565b5b6000613a6d84828501613a34565b91505092915050565b60008115159050919050565b613a8b81613a76565b82525050565b6000602082019050613aa66000830184613a82565b92915050565b600081519050919050565b600082825260208201905092915050565b60005b83811015613ae6578082015181840152602081019050613acb565b60008484015250505050565b6000601f19601f8301169050919050565b6000613b0e82613aac565b613b188185613ab7565b9350613b28818560208601613ac8565b613b3181613af2565b840191505092915050565b6000819050919050565b613b4f81613b3c565b82525050565b600060a0830160008301518482036000860152613b728282613b03565b91505060208301518482036020860152613b8c8282613b03565b9150506040830151613ba16040860182613b46565b506060830151613bb46060860182613b46565b506080830151613bc76080860182613b46565b508091505092915050565b60006020820190508181036000830152613bec8184613b55565b905092915050565b600082825260208201905092915050565b6000613c1082613aac565b613c1a8185613bf4565b9350613c2a818560208601613ac8565b613c3381613af2565b840191505092915050565b60006020820190508181036000830152613c588184613c05565b905092915050565b613c6981613b3c565b8114613c7457600080fd5b50565b600081359050613c8681613c60565b92915050565b600060208284031215613ca257613ca16139e7565b5b6000613cb084828501613c77565b91505092915050565b600073ffffffffffffffffffffffffffffffffffffffff82169050919050565b6000613ce482613cb9565b9050919050565b613cf481613cd9565b82525050565b6000602082019050613d0f6000830184613ceb565b92915050565b613d1e81613cd9565b8114613d2957600080fd5b50565b600081359050613d3b81613d15565b92915050565b60008060408385031215613d5857613d576139e7565b5b6000613d6685828601613d2c565b9250506020613d7785828601613c77565b9150509250929050565b600080600060608486031215613d9a57613d996139e7565b5b6000613da886828701613d2c565b9350506020613db986828701613d2c565b9250506040613dca86828701613c77565b9150509250925092565b600060208284031215613dea57613de96139e7565b5b6000613df884828501613d2c565b91505092915050565b613e0a81613b3c565b82525050565b6000602082019050613e256000830184613e01565b92915050565b600060e082019050613e40600083018a613e01565b8181036020830152613e528189613c05565b90508181036040830152613e668188613c05565b9050613e756060830187613e01565b613e826080830186613e01565b613e8f60a0830185613e01565b613e9c60c0830184613e01565b98975050505050505050565b613eb181613a76565b8114613ebc57600080fd5b50565b600081359050613ece81613ea8565b92915050565b60008060408385031215613eeb57613eea6139e7565b5b6000613ef985828601613d2c565b9250506020613f0a85828601613ebf565b9150509250929050565b600060a0820190508181036000830152613f2e8188613c05565b90508181036020830152613f428187613c05565b9050613f516040830186613e01565b613f5e6060830185613e01565b613f6b6080830184613e01565b9695505050505050565b600080fd5b600080fd5b7f4e487b7100000000000000000000000000000000000000000000000000000000600052604160045260246000fd5b613fb782613af2565b810181811067ffffffffffffffff82111715613fd657613fd5613f7f565b5b80604052505050565b6000613fe96139dd565b9050613ff58282613fae565b919050565b600067ffffffffffffffff82111561401557614014613f7f565b5b61401e82613af2565b9050602081019050919050565b82818337600083830152505050565b600061404d61404884613ffa565b613fdf565b90508281526020810184848401111561406957614068613f7a565b5b61407484828561402b565b509392505050565b600082601f83011261409157614090613f75565b5b81356140a184826020860161403a565b91505092915050565b600080600080608085870312156140c4576140c36139e7565b5b60006140d287828801613d2c565b94505060206140e387828801613d2c565b93505060406140f487828801613c77565b925050606085013567ffffffffffffffff811115614115576141146139ec565b5b6141218782880161407c565b91505092959194509250565b600081519050919050565b600082825260208201905092915050565b6000819050602082019050919050565b600060e0830160008301516141716000860182613b46565b50602083015184820360208601526141898282613b03565b915050604083015184820360408601526141a38282613b03565b91505060608301516141b86060860182613b46565b5060808301516141cb6080860182613b46565b5060a08301516141de60a0860182613b46565b5060c08301516141f160c0860182613b46565b508091505092915050565b60006142088383614159565b905092915050565b6000602082019050919050565b60006142288261412d565b6142328185614138565b93508360208202850161424485614149565b8060005b85811015614280578484038952815161426185826141fc565b945061426c83614210565b925060208a01995050600181019050614248565b50829750879550505050505092915050565b600060208201905081810360008301526142ac818461421d565b905092915050565b600060e0830160008301516142cc6000860182613b46565b50602083015184820360208601526142e48282613b03565b915050604083015184820360408601526142fe8282613b03565b91505060608301516143136060860182613b46565b5060808301516143266080860182613b46565b5060a083015161433960a0860182613b46565b5060c083015161434c60c0860182613b46565b508091505092915050565b6000602082019050818103600083015261437181846142b4565b905092915050565b600080604083850312156143905761438f6139e7565b5b600061439e85828601613d2c565b92505060206143af85828601613d2c565b9150509250929050565b600081519050919050565b600082825260208201905092915050565b6000819050602082019050919050565b6143ee81613cd9565b82525050565b600061440083836143e5565b60208301905092915050565b6000602082019050919050565b6000614424826143b9565b61442e81856143c4565b9350614439836143d5565b8060005b8381101561446a57815161445188826143f4565b975061445c8361440c565b92505060018101905061443d565b5085935050505092915050565b600060408201905081810360008301526144918185614419565b905081810360208301526144a5818461421d565b90509392505050565b7f4e487b7100000000000000000000000000000000000000000000000000000000600052602260045260246000fd5b600060028204905060018216806144f557607f821691505b602082108103614508576145076144ae565b5b50919050565b7f4552433732313a20617070726f76616c20746f2063757272656e74206f776e6560008201527f7200000000000000000000000000000000000000000000000000000000000000602082015250565b600061456a602183613bf4565b91506145758261450e565b604082019050919050565b600060208201905081810360008301526145998161455d565b9050919050565b7f4552433732313a20617070726f76652063616c6c6572206973206e6f7420746f60008201527f6b656e206f776e6572206f7220617070726f76656420666f7220616c6c000000602082015250565b60006145fc603d83613bf4565b9150614607826145a0565b604082019050919050565b6000602082019050818103600083015261462b816145ef565b9050919050565b7f4552433732313a2063616c6c6572206973206e6f7420746f6b656e206f776e6560008201527f72206f7220617070726f76656400000000000000000000000000000000000000602082015250565b600061468e602d83613bf4565b915061469982614632565b604082019050919050565b600060208201905081810360008301526146bd81614681565b9050919050565b7f4552433732313a20696e76616c696420746f6b656e2049440000000000000000600082015250565b60006146fa601883613bf4565b9150614705826146c4565b602082019050919050565b60006020820190508181036000830152614729816146ed565b9050919050565b7f4552433732313a2061646472657373207a65726f206973206e6f74206120766160008201527f6c6964206f776e65720000000000000000000000000000000000000000000000602082015250565b600061478c602983613bf4565b915061479782614730565b604082019050919050565b600060208201905081810360008301526147bb8161477f565b9050919050565b600081905092915050565b7f7b226e616d65223a202200000000000000000000000000000000000000000000600082015250565b6000614803600a836147c2565b915061480e826147cd565b600a82019050919050565b600061482482613aac565b61482e81856147c2565b935061483e818560208601613ac8565b80840191505092915050565b7f202d2d204e465420233a20000000000000000000000000000000000000000000600082015250565b6000614880600b836147c2565b915061488b8261484a565b600b82019050919050565b7f222c20226465736372697074696f6e223a20225468697320697320616e204e4660008201527f542074686174206c6574732070656f706c6520706c617920696e20746865206760208201527f616d65204368726973746d6173204a6f7920537072656164657221222c20226960408201527f6d616765223a2022697066733a2f2f0000000000000000000000000000000000606082015250565b600061493e606f836147c2565b915061494982614896565b606f82019050919050565b7f222c202261747472696275746573223a205b207b202274726169745f7479706560008201527f223a20224a6f7920506f696e7473222c202276616c7565223a20000000000000602082015250565b60006149b0603a836147c2565b91506149bb82614954565b603a82019050919050565b7f2c20226d61785f76616c7565223a000000000000000000000000000000000000600082015250565b60006149fc600e836147c2565b9150614a07826149c6565b600e82019050919050565b7f7d2c207b202274726169745f74797065223a202241747461636b2044616d616760008201527f65222c202276616c7565223a2000000000000000000000000000000000000000602082015250565b6000614a6e602d836147c2565b9150614a7982614a12565b602d82019050919050565b7f7d205d7d00000000000000000000000000000000000000000000000000000000600082015250565b6000614aba6004836147c2565b9150614ac582614a84565b600482019050919050565b6000614adb826147f6565b9150614ae78289614819565b9150614af282614873565b9150614afe8288614819565b9150614b0982614931565b9150614b158287614819565b9150614b20826149a3565b9150614b2c8286614819565b9150614b37826149ef565b9150614b438285614819565b9150614b4e82614a61565b9150614b5a8284614819565b9150614b6582614aad565b9150819050979650505050505050565b7f646174613a6170706c69636174696f6e2f6a736f6e3b6261736536342c000000600082015250565b6000614bab601d836147c2565b9150614bb682614b75565b601d82019050919050565b6000614bcc82614b9e565b9150614bd88284614819565b915081905092915050565b7f4572726f723a20636861726163746572206d7573742068617665204a5020746f60008201527f2061747461636b20626f73732e00000000000000000000000000000000000000602082015250565b6000614c3f602d83613bf4565b9150614c4a82614be3565b604082019050919050565b60006020820190508181036000830152614c6e81614c32565b9050919050565b7f4572726f723a20626f7373206d7573742068617665204a5020746f206174746160008201527f636b206368617261637465722e00000000000000000000000000000000000000602082015250565b6000614cd1602d83613bf4565b9150614cdc82614c75565b604082019050919050565b60006020820190508181036000830152614d0081614cc4565b9050919050565b7f4e487b7100000000000000000000000000000000000000000000000000000000600052601160045260246000fd5b6000614d4182613b3c565b9150614d4c83613b3c565b9250828203905081811115614d6457614d63614d07565b5b92915050565b600060a082019050614d7f6000830188613ceb565b614d8c6020830187613e01565b614d996040830186613e01565b614da66060830185613e01565b614db36080830184613e01565b9695505050505050565b7f4e487b7100000000000000000000000000000000000000000000000000000000600052603260045260246000fd5b6000614df782613b3c565b91507fffffffffffffffffffffffffffffffffffffffffffffffffffffffffffffffff8203614e2957614e28614d07565b5b600182019050919050565b60008190508160005260206000209050919050565b60006020601f8301049050919050565b600082821b905092915050565b600060088302614e967fffffffffffffffffffffffffffffffffffffffffffffffffffffffffffffffff82614e59565b614ea08683614e59565b95508019841693508086168417925050509392505050565b6000819050919050565b6000614edd614ed8614ed384613b3c565b614eb8565b613b3c565b9050919050565b6000819050919050565b614ef783614ec2565b614f0b614f0382614ee4565b848454614e66565b825550505050565b600090565b614f20614f13565b614f2b818484614eee565b505050565b5b81811015614f4f57614f44600082614f18565b600181019050614f31565b5050565b601f821115614f9457614f6581614e34565b614f6e84614e49565b81016020851015614f7d578190505b614f91614f8985614e49565b830182614f30565b50505b505050565b600082821c905092915050565b6000614fb760001984600802614f99565b1980831691505092915050565b6000614fd08383614fa6565b9150826002028217905092915050565b614fe982613aac565b67ffffffffffffffff81111561500257615001613f7f565b5b61500c82546144dd565b615017828285614f53565b600060209050601f83116001811461504a5760008415615038578287015190505b6150428582614fc4565b8655506150aa565b601f19841661505886614e34565b60005b828110156150805784890151825560018201915060208501945060208101905061505b565b8683101561509d5784890151615099601f891682614fa6565b8355505b6001600288020188555050505b505050505050565b60006150bd82613b3c565b91506150c883613b3c565b92508282019050808211156150e0576150df614d07565b5b92915050565b60006060820190506150fb6000830186613ceb565b6151086020830185613e01565b6151156040830184613e01565b949350505050565b600060808201905081810360008301526151378187613c05565b9050818103602083015261514b8186613c05565b905061515a6040830185613e01565b818103606083015261516c8184613c05565b905095945050505050565b7f4552433732313a207472616e736665722066726f6d20696e636f72726563742060008201527f6f776e6572000000000000000000000000000000000000000000000000000000602082015250565b60006151d3602583613bf4565b91506151de82615177565b604082019050919050565b60006020820190508181036000830152615202816151c6565b9050919050565b7f4552433732313a207472616e7366657220746f20746865207a65726f2061646460008201527f7265737300000000000000000000000000000000000000000000000000000000602082015250565b6000615265602483613bf4565b915061527082615209565b604082019050919050565b6000602082019050818103600083015261529481615258565b9050919050565b7f4552433732313a20617070726f766520746f2063616c6c657200000000000000600082015250565b60006152d1601983613bf4565b91506152dc8261529b565b602082019050919050565b60006020820190508181036000830152615300816152c4565b9050919050565b7f4552433732313a207472616e7366657220746f206e6f6e20455243373231526560008201527f63656976657220696d706c656d656e7465720000000000000000000000000000602082015250565b6000615363603283613bf4565b915061536e82615307565b604082019050919050565b6000602082019050818103600083015261539281615356565b9050919050565b7f4e487b7100000000000000000000000000000000000000000000000000000000600052601260045260246000fd5b60006153d382613b3c565b91506153de83613b3c565b9250826153ee576153ed615399565b5b828204905092915050565b600061540482613b3c565b915061540f83613b3c565b925082820261541d81613b3c565b9150828204841483151761543457615433614d07565b5b5092915050565b600060808201905081810360008301526154558187613c05565b905081810360208301526154698186613c05565b90506154786040830185613e01565b6154856060830184613e01565b95945050505050565b6000819050919050565b6154a96154a482613b3c565b61548e565b82525050565b60008160601b9050919050565b60006154c7826154af565b9050919050565b60006154d9826154bc565b9050919050565b6154f16154ec82613cd9565b6154ce565b82525050565b60006155038286615498565b60208201915061551382856154e0565b6014820191506155238284615498565b602082019150819050949350505050565b600061553f82613b3c565b915061554a83613b3c565b92508261555a57615559615399565b5b828206905092915050565b6000608082019050818103600083015261557f8187613c05565b905081810360208301526155938186613c05565b905081810360408301526155a78185613c05565b90506155b66060830184613e01565b95945050505050565b600060408201905081810360008301526155d98185613c05565b905081810360208301526155ed8184613c05565b90509392505050565b600060608201905081810360008301526156108186613c05565b905061561f6020830185613e01565b61562c6040830184613e01565b949350505050565b600081519050919050565b600082825260208201905092915050565b600061565b82615634565b615665818561563f565b9350615675818560208601613ac8565b61567e81613af2565b840191505092915050565b600060808201905061569e6000830187613ceb565b6156ab6020830186613ceb565b6156b86040830185613e01565b81810360608301526156ca8184615650565b905095945050505050565b6000815190506156e481613a1d565b92915050565b600060208284031215615700576156ff6139e7565b5b600061570e848285016156d5565b91505092915050565b7f4552433732313a206d696e7420746f20746865207a65726f2061646472657373600082015250565b600061574d602083613bf4565b915061575882615717565b602082019050919050565b6000602082019050818103600083015261577c81615740565b9050919050565b7f4552433732313a20746f6b656e20616c7265616479206d696e74656400000000600082015250565b60006157b9601c83613bf4565b91506157c482615783565b602082019050919050565b600060208201905081810360008301526157e8816157ac565b905091905056fe4142434445464748494a4b4c4d4e4f505152535455565758595a6162636465666768696a6b6c6d6e6f707172737475767778797a303132333435363738392b2f25732061747461636b656420626f73732025732e204e657720626f7373204a503a2025730a506c6179657220772f206368617261637465722025732061626f757420746f2061747461636b2e20486173202573204a5020616e642025732041444d696e746564204e465420772f20746f6b656e496420257320616e6420636861726163746572496e646578202573426f73732025732061747461636b656420706c617965722025732e204e657720706c61796572204a503a2025730aa2646970667358221220aa75e01a2ce2678cf845b0d974336b454ee0fd7e0074e5c30e4ec650ec8ba5b564736f6c63430008110033446f6e6520696e697469616c697a696e6720626f737320257320772f204a502025732c20696d67202573446f6e6520696e697469616c697a696e6720257320772f204a6f79506f696e74732025732c20696d67202573",
  "linkReferences": {},
  "deployedLinkReferences": {}
}