{
  "_format": "hh-sol-artifact-1",
  "contractName": "ChristmasGame",
  "sourceName": "contracts/ChristmasGame.sol",
  "abi": [
    {
      "inputs": [
        {
          "internalType": "string[]",
          "name": "characterNames",
          "type": "string[]"
        },
        {
          "internalType": "string[]",
          "name": "characterImageURIs",
          "type": "string[]"
        },
        {
          "internalType": "uint256[]",
          "name": "characterJoyPoints",
          "type": "uint256[]"
        },
        {
          "internalType": "uint256[]",
          "name": "characterAttackDmg",
          "type": "uint256[]"
        },
        {
          "internalType": "string",
          "name": "bossName",
          "type": "string"
        },
        {
          "internalType": "string",
          "name": "bossImageURI",
          "type": "string"
        },
        {
          "internalType": "uint256",
          "name": "bossJoyPoints",
          "type": "uint256"
        },
        {
          "internalType": "uint256",
          "name": "bossAttackDamage",
          "type": "uint256"
        }
      ],
      "stateMutability": "nonpayable",
      "type": "constructor"
    },
    {
      "anonymous": false,
      "inputs": [
        {
          "indexed": true,
          "internalType": "address",
          "name": "owner",
          "type": "address"
        },
        {
          "indexed": true,
          "internalType": "address",
          "name": "approved",
          "type": "address"
        },
        {
          "indexed": true,
          "internalType": "uint256",
          "name": "tokenId",
          "type": "uint256"
        }
      ],
      "name": "Approval",
      "type": "event"
    },
    {
      "anonymous": false,
      "inputs": [
        {
          "indexed": true,
          "internalType": "address",
          "name": "owner",
          "type": "address"
        },
        {
          "indexed": true,
          "internalType": "address",
          "name": "operator",
          "type": "address"
        },
        {
          "indexed": false,
          "internalType": "bool",
          "name": "approved",
          "type": "bool"
        }
      ],
      "name": "ApprovalForAll",
      "type": "event"
    },
    {
      "anonymous": false,
      "inputs": [
        {
          "indexed": false,
          "internalType": "address",
          "name": "sender",
          "type": "address"
        },
        {
          "indexed": false,
          "internalType": "uint256",
          "name": "newBossHp",
          "type": "uint256"
        },
        {
          "indexed": false,
          "internalType": "uint256",
          "name": "newPlayerHp",
          "type": "uint256"
        },
        {
          "indexed": false,
          "internalType": "uint256",
          "name": "playerAttackResult",
          "type": "uint256"
        },
        {
          "indexed": false,
          "internalType": "uint256",
          "name": "bossAttackResult",
          "type": "uint256"
        }
      ],
      "name": "AttackComplete",
      "type": "event"
    },
    {
      "anonymous": false,
      "inputs": [
        {
          "indexed": false,
          "internalType": "address",
          "name": "sender",
          "type": "address"
        },
        {
          "indexed": false,
          "internalType": "uint256",
          "name": "tokenId",
          "type": "uint256"
        },
        {
          "indexed": false,
          "internalType": "uint256",
          "name": "characterIndex",
          "type": "uint256"
        }
      ],
      "name": "CharacterNFTMinted",
      "type": "event"
    },
    {
      "anonymous": false,
      "inputs": [
        {
          "indexed": true,
          "internalType": "address",
          "name": "from",
          "type": "address"
        },
        {
          "indexed": true,
          "internalType": "address",
          "name": "to",
          "type": "address"
        },
        {
          "indexed": true,
          "internalType": "uint256",
          "name": "tokenId",
          "type": "uint256"
        }
      ],
      "name": "Transfer",
      "type": "event"
    },
    {
      "inputs": [
        {
          "internalType": "address",
          "name": "to",
          "type": "address"
        },
        {
          "internalType": "uint256",
          "name": "tokenId",
          "type": "uint256"
        }
      ],
      "name": "approve",
      "outputs": [],
      "stateMutability": "nonpayable",
      "type": "function"
    },
    {
      "inputs": [],
      "name": "attackBoss",
      "outputs": [],
      "stateMutability": "nonpayable",
      "type": "function"
    },
    {
      "inputs": [
        {
          "internalType": "address",
          "name": "owner",
          "type": "address"
        }
      ],
      "name": "balanceOf",
      "outputs": [
        {
          "internalType": "uint256",
          "name": "",
          "type": "uint256"
        }
      ],
      "stateMutability": "view",
      "type": "function"
    },
    {
      "inputs": [],
      "name": "bigBoss",
      "outputs": [
        {
          "internalType": "string",
          "name": "name",
          "type": "string"
        },
        {
          "internalType": "string",
          "name": "imageURI",
          "type": "string"
        },
        {
          "internalType": "uint256",
          "name": "joyPoints",
          "type": "uint256"
        },
        {
          "internalType": "uint256",
          "name": "maxJoyPoints",
          "type": "uint256"
        },
        {
          "internalType": "uint256",
          "name": "attackDamage",
          "type": "uint256"
        }
      ],
      "stateMutability": "view",
      "type": "function"
    },
    {
      "inputs": [],
      "name": "checkIfUserHasNFT",
      "outputs": [
        {
          "components": [
            {
              "internalType": "uint256",
              "name": "characterIndex",
              "type": "uint256"
            },
            {
              "internalType": "string",
              "name": "name",
              "type": "string"
            },
            {
              "internalType": "string",
              "name": "imageURI",
              "type": "string"
            },
            {
              "internalType": "uint256",
              "name": "joyPoints",
              "type": "uint256"
            },
            {
              "internalType": "uint256",
              "name": "maxJoyPoints",
              "type": "uint256"
            },
            {
              "internalType": "uint256",
              "name": "attackDamage",
              "type": "uint256"
            }
          ],
          "internalType": "struct ChristmasGame.CharacterAttributes",
          "name": "",
          "type": "tuple"
        }
      ],
      "stateMutability": "view",
      "type": "function"
    },
    {
      "inputs": [],
      "name": "getAllDefaultCharacters",
      "outputs": [
        {
          "components": [
            {
              "internalType": "uint256",
              "name": "characterIndex",
              "type": "uint256"
            },
            {
              "internalType": "string",
              "name": "name",
              "type": "string"
            },
            {
              "internalType": "string",
              "name": "imageURI",
              "type": "string"
            },
            {
              "internalType": "uint256",
              "name": "joyPoints",
              "type": "uint256"
            },
            {
              "internalType": "uint256",
              "name": "maxJoyPoints",
              "type": "uint256"
            },
            {
              "internalType": "uint256",
              "name": "attackDamage",
              "type": "uint256"
            }
          ],
          "internalType": "struct ChristmasGame.CharacterAttributes[]",
          "name": "",
          "type": "tuple[]"
        }
      ],
      "stateMutability": "view",
      "type": "function"
    },
    {
      "inputs": [],
      "name": "getAllPlayers",
      "outputs": [
        {
          "internalType": "address[]",
          "name": "",
          "type": "address[]"
        },
        {
          "components": [
            {
              "internalType": "uint256",
              "name": "characterIndex",
              "type": "uint256"
            },
            {
              "internalType": "string",
              "name": "name",
              "type": "string"
            },
            {
              "internalType": "string",
              "name": "imageURI",
              "type": "string"
            },
            {
              "internalType": "uint256",
              "name": "joyPoints",
              "type": "uint256"
            },
            {
              "internalType": "uint256",
              "name": "maxJoyPoints",
              "type": "uint256"
            },
            {
              "internalType": "uint256",
              "name": "attackDamage",
              "type": "uint256"
            }
          ],
          "internalType": "struct ChristmasGame.CharacterAttributes[]",
          "name": "",
          "type": "tuple[]"
        }
      ],
      "stateMutability": "view",
      "type": "function"
    },
    {
      "inputs": [
        {
          "internalType": "uint256",
          "name": "tokenId",
          "type": "uint256"
        }
      ],
      "name": "getApproved",
      "outputs": [
        {
          "internalType": "address",
          "name": "",
          "type": "address"
        }
      ],
      "stateMutability": "view",
      "type": "function"
    },
    {
      "inputs": [],
      "name": "getBigBoss",
      "outputs": [
        {
          "components": [
            {
              "internalType": "string",
              "name": "name",
              "type": "string"
            },
            {
              "internalType": "string",
              "name": "imageURI",
              "type": "string"
            },
            {
              "internalType": "uint256",
              "name": "joyPoints",
              "type": "uint256"
            },
            {
              "internalType": "uint256",
              "name": "maxJoyPoints",
              "type": "uint256"
            },
            {
              "internalType": "uint256",
              "name": "attackDamage",
              "type": "uint256"
            }
          ],
          "internalType": "struct ChristmasGame.BigBoss",
          "name": "",
          "type": "tuple"
        }
      ],
      "stateMutability": "view",
      "type": "function"
    },
    {
      "inputs": [
        {
          "internalType": "address",
          "name": "owner",
          "type": "address"
        },
        {
          "internalType": "address",
          "name": "operator",
          "type": "address"
        }
      ],
      "name": "isApprovedForAll",
      "outputs": [
        {
          "internalType": "bool",
          "name": "",
          "type": "bool"
        }
      ],
      "stateMutability": "view",
      "type": "function"
    },
    {
      "inputs": [
        {
          "internalType": "uint256",
          "name": "_characterIndex",
          "type": "uint256"
        }
      ],
      "name": "mintCharacterNFT",
      "outputs": [],
      "stateMutability": "nonpayable",
      "type": "function"
    },
    {
      "inputs": [],
      "name": "name",
      "outputs": [
        {
          "internalType": "string",
          "name": "",
          "type": "string"
        }
      ],
      "stateMutability": "view",
      "type": "function"
    },
    {
      "inputs": [
        {
          "internalType": "uint256",
          "name": "",
          "type": "uint256"
        }
      ],
      "name": "nftHolderAddresses",
      "outputs": [
        {
          "internalType": "address",
          "name": "",
          "type": "address"
        }
      ],
      "stateMutability": "view",
      "type": "function"
    },
    {
      "inputs": [
        {
          "internalType": "uint256",
          "name": "",
          "type": "uint256"
        }
      ],
      "name": "nftHolderAttributes",
      "outputs": [
        {
          "internalType": "uint256",
          "name": "characterIndex",
          "type": "uint256"
        },
        {
          "internalType": "string",
          "name": "name",
          "type": "string"
        },
        {
          "internalType": "string",
          "name": "imageURI",
          "type": "string"
        },
        {
          "internalType": "uint256",
          "name": "joyPoints",
          "type": "uint256"
        },
        {
          "internalType": "uint256",
          "name": "maxJoyPoints",
          "type": "uint256"
        },
        {
          "internalType": "uint256",
          "name": "attackDamage",
          "type": "uint256"
        }
      ],
      "stateMutability": "view",
      "type": "function"
    },
    {
      "inputs": [],
      "name": "nftHolderCount",
      "outputs": [
        {
          "internalType": "uint256",
          "name": "",
          "type": "uint256"
        }
      ],
      "stateMutability": "view",
      "type": "function"
    },
    {
      "inputs": [
        {
          "internalType": "address",
          "name": "",
          "type": "address"
        }
      ],
      "name": "nftHolders",
      "outputs": [
        {
          "internalType": "uint256",
          "name": "",
          "type": "uint256"
        }
      ],
      "stateMutability": "view",
      "type": "function"
    },
    {
      "inputs": [
        {
          "internalType": "uint256",
          "name": "tokenId",
          "type": "uint256"
        }
      ],
      "name": "ownerOf",
      "outputs": [
        {
          "internalType": "address",
          "name": "",
          "type": "address"
        }
      ],
      "stateMutability": "view",
      "type": "function"
    },
    {
      "inputs": [
        {
          "internalType": "address",
          "name": "from",
          "type": "address"
        },
        {
          "internalType": "address",
          "name": "to",
          "type": "address"
        },
        {
          "internalType": "uint256",
          "name": "tokenId",
          "type": "uint256"
        }
      ],
      "name": "safeTransferFrom",
      "outputs": [],
      "stateMutability": "nonpayable",
      "type": "function"
    },
    {
      "inputs": [
        {
          "internalType": "address",
          "name": "from",
          "type": "address"
        },
        {
          "internalType": "address",
          "name": "to",
          "type": "address"
        },
        {
          "internalType": "uint256",
          "name": "tokenId",
          "type": "uint256"
        },
        {
          "internalType": "bytes",
          "name": "data",
          "type": "bytes"
        }
      ],
      "name": "safeTransferFrom",
      "outputs": [],
      "stateMutability": "nonpayable",
      "type": "function"
    },
    {
      "inputs": [
        {
          "internalType": "address",
          "name": "operator",
          "type": "address"
        },
        {
          "internalType": "bool",
          "name": "approved",
          "type": "bool"
        }
      ],
      "name": "setApprovalForAll",
      "outputs": [],
      "stateMutability": "nonpayable",
      "type": "function"
    },
    {
      "inputs": [
        {
          "internalType": "bytes4",
          "name": "interfaceId",
          "type": "bytes4"
        }
      ],
      "name": "supportsInterface",
      "outputs": [
        {
          "internalType": "bool",
          "name": "",
          "type": "bool"
        }
      ],
      "stateMutability": "view",
      "type": "function"
    },
    {
      "inputs": [],
      "name": "symbol",
      "outputs": [
        {
          "internalType": "string",
          "name": "",
          "type": "string"
        }
      ],
      "stateMutability": "view",
      "type": "function"
    },
    {
      "inputs": [
        {
          "internalType": "uint256",
          "name": "_tokenId",
          "type": "uint256"
        }
      ],
      "name": "tokenURI",
      "outputs": [
        {
          "internalType": "string",
          "name": "",
          "type": "string"
        }
      ],
      "stateMutability": "view",
      "type": "function"
    },
    {
      "inputs": [
        {
          "internalType": "address",
          "name": "from",
          "type": "address"
        },
        {
          "internalType": "address",
          "name": "to",
          "type": "address"
        },
        {
          "internalType": "uint256",
          "name": "tokenId",
          "type": "uint256"
        }
      ],
      "name": "transferFrom",
      "outputs": [],
      "stateMutability": "nonpayable",
      "type": "function"
    }
  ],
  "bytecode": "0x608060405260006012553480156200001657600080fd5b50604051620069a6380380620069a683398181016040528101906200003c919062000a90565b6040518060400160405280601781526020017f4368726973746d6173204a6f79205370726561646572730000000000000000008152506040518060400160405280600481526020017f584d4153000000000000000000000000000000000000000000000000000000008152508160009081620000b9919062000e54565b508060019081620000cb919062000e54565b5050506040518060a0016040528085815260200184815260200183815260200183815260200182815250600d60008201518160000190816200010e919062000e54565b50602082015181600101908162000126919062000e54565b50604082015181600201556060820151816003015560808201518160040155905050620002a96040518060600160405280602a815260200162006950602a9139600d6000018054620001789062000c4d565b80601f0160208091040260200160405190810160405280929190818152602001828054620001a69062000c4d565b8015620001f75780601f10620001cb57610100808354040283529160200191620001f7565b820191906000526020600020905b815481529060010190602001808311620001d957829003601f168201915b5050505050600d60020154600d6001018054620002149062000c4d565b80601f0160208091040260200160405190810160405280929190818152602001828054620002429062000c4d565b8015620002935780601f10620002675761010080835404028352916020019162000293565b820191906000526020600020905b8154815290600101906020018083116200027557829003601f168201915b50505050506200060560201b620024611760201c565b60005b8851811015620005df5760076040518060c001604052808381526020018b8481518110620002df57620002de62000f3b565b5b602002602001015181526020018a848151811062000302576200030162000f3b565b5b6020026020010151815260200189848151811062000325576200032462000f3b565b5b6020026020010151815260200189848151811062000348576200034762000f3b565b5b602002602001015181526020018884815181106200036b576200036a62000f3b565b5b60200260200101518152509080600181540180825580915050600190039060005260206000209060060201600090919091909150600082015181600001556020820151816001019081620003c0919062000e54565b506040820151816002019081620003d8919062000e54565b50606082015181600301556080820151816004015560a08201518160050155505060006007828154811062000412576200041162000f3b565b5b90600052602060002090600602016040518060c001604052908160008201548152602001600182018054620004479062000c4d565b80601f0160208091040260200160405190810160405280929190818152602001828054620004759062000c4d565b8015620004c65780601f106200049a57610100808354040283529160200191620004c6565b820191906000526020600020905b815481529060010190602001808311620004a857829003601f168201915b50505050508152602001600282018054620004e19062000c4d565b80601f01602080910402602001604051908101604052809291908181526020018280546200050f9062000c4d565b8015620005605780601f10620005345761010080835404028352916020019162000560565b820191906000526020600020905b8154815290600101906020018083116200054257829003601f168201915b5050505050815260200160038201548152602001600482015481526020016005820154815250509050620005c76040518060600160405280602c81526020016200697a602c91398260200151836060015184604001516200060560201b620024611760201c565b50600181620005d7919062000f99565b9050620002ac565b50620005f76006620006b160201b620025031760201c565b505050505050505062001099565b620006ab8484848460405160240162000622949392919062001037565b6040516020818303038152906040527f5d1a971a000000000000000000000000000000000000000000000000000000007bffffffffffffffffffffffffffffffffffffffffffffffffffffffff19166020820180517bffffffffffffffffffffffffffffffffffffffffffffffffffffffff8381831617835250505050620006c760201b60201c565b50505050565b6001816000016000828254019250508190555050565b60008151905060006a636f6e736f6c652e6c6f679050602083016000808483855afa5050505050565b6000604051905090565b600080fd5b600080fd5b600080fd5b6000601f19601f8301169050919050565b7f4e487b7100000000000000000000000000000000000000000000000000000000600052604160045260246000fd5b620007548262000709565b810181811067ffffffffffffffff821117156200077657620007756200071a565b5b80604052505050565b60006200078b620006f0565b905062000799828262000749565b919050565b600067ffffffffffffffff821115620007bc57620007bb6200071a565b5b602082029050602081019050919050565b600080fd5b600080fd5b600067ffffffffffffffff821115620007f557620007f46200071a565b5b620008008262000709565b9050602081019050919050565b60005b838110156200082d57808201518184015260208101905062000810565b60008484015250505050565b6000620008506200084a84620007d7565b6200077f565b9050828152602081018484840111156200086f576200086e620007d2565b5b6200087c8482856200080d565b509392505050565b600082601f8301126200089c576200089b62000704565b5b8151620008ae84826020860162000839565b91505092915050565b6000620008ce620008c8846200079e565b6200077f565b90508083825260208201905060208402830185811115620008f457620008f3620007cd565b5b835b818110156200094257805167ffffffffffffffff8111156200091d576200091c62000704565b5b8086016200092c898262000884565b85526020850194505050602081019050620008f6565b5050509392505050565b600082601f83011262000964576200096362000704565b5b815162000976848260208601620008b7565b91505092915050565b600067ffffffffffffffff8211156200099d576200099c6200071a565b5b602082029050602081019050919050565b6000819050919050565b620009c381620009ae565b8114620009cf57600080fd5b50565b600081519050620009e381620009b8565b92915050565b600062000a00620009fa846200097f565b6200077f565b9050808382526020820190506020840283018581111562000a265762000a25620007cd565b5b835b8181101562000a53578062000a3e8882620009d2565b84526020840193505060208101905062000a28565b5050509392505050565b600082601f83011262000a755762000a7462000704565b5b815162000a87848260208601620009e9565b91505092915050565b600080600080600080600080610100898b03121562000ab45762000ab3620006fa565b5b600089015167ffffffffffffffff81111562000ad55762000ad4620006ff565b5b62000ae38b828c016200094c565b985050602089015167ffffffffffffffff81111562000b075762000b06620006ff565b5b62000b158b828c016200094c565b975050604089015167ffffffffffffffff81111562000b395762000b38620006ff565b5b62000b478b828c0162000a5d565b965050606089015167ffffffffffffffff81111562000b6b5762000b6a620006ff565b5b62000b798b828c0162000a5d565b955050608089015167ffffffffffffffff81111562000b9d5762000b9c620006ff565b5b62000bab8b828c0162000884565b94505060a089015167ffffffffffffffff81111562000bcf5762000bce620006ff565b5b62000bdd8b828c0162000884565b93505060c062000bf08b828c01620009d2565b92505060e062000c038b828c01620009d2565b9150509295985092959890939650565b600081519050919050565b7f4e487b7100000000000000000000000000000000000000000000000000000000600052602260045260246000fd5b6000600282049050600182168062000c6657607f821691505b60208210810362000c7c5762000c7b62000c1e565b5b50919050565b60008190508160005260206000209050919050565b60006020601f8301049050919050565b600082821b905092915050565b60006008830262000ce67fffffffffffffffffffffffffffffffffffffffffffffffffffffffffffffffff8262000ca7565b62000cf2868362000ca7565b95508019841693508086168417925050509392505050565b6000819050919050565b600062000d3562000d2f62000d2984620009ae565b62000d0a565b620009ae565b9050919050565b6000819050919050565b62000d518362000d14565b62000d6962000d608262000d3c565b84845462000cb4565b825550505050565b600090565b62000d8062000d71565b62000d8d81848462000d46565b505050565b5b8181101562000db55762000da960008262000d76565b60018101905062000d93565b5050565b601f82111562000e045762000dce8162000c82565b62000dd98462000c97565b8101602085101562000de9578190505b62000e0162000df88562000c97565b83018262000d92565b50505b505050565b600082821c905092915050565b600062000e296000198460080262000e09565b1980831691505092915050565b600062000e44838362000e16565b9150826002028217905092915050565b62000e5f8262000c13565b67ffffffffffffffff81111562000e7b5762000e7a6200071a565b5b62000e87825462000c4d565b62000e9482828562000db9565b600060209050601f83116001811462000ecc576000841562000eb7578287015190505b62000ec3858262000e36565b86555062000f33565b601f19841662000edc8662000c82565b60005b8281101562000f065784890151825560018201915060208501945060208101905062000edf565b8683101562000f26578489015162000f22601f89168262000e16565b8355505b6001600288020188555050505b505050505050565b7f4e487b7100000000000000000000000000000000000000000000000000000000600052603260045260246000fd5b7f4e487b7100000000000000000000000000000000000000000000000000000000600052601160045260246000fd5b600062000fa682620009ae565b915062000fb383620009ae565b925082820190508082111562000fce5762000fcd62000f6a565b5b92915050565b600082825260208201905092915050565b600062000ff28262000c13565b62000ffe818562000fd4565b9350620010108185602086016200080d565b6200101b8162000709565b840191505092915050565b6200103181620009ae565b82525050565b6000608082019050818103600083015262001053818762000fe5565b9050818103602083015262001069818662000fe5565b90506200107a604083018562001026565b81810360608301526200108e818462000fe5565b905095945050505050565b6158a780620010a96000396000f3fe608060405234801561001057600080fd5b50600436106101585760003560e01c806398da4c95116100c3578063c87b56dd1161007c578063c87b56dd146103f6578063c8cf27f414610426578063d4f24c5b14610444578063e985e9c51461044e578063efa1c4821461047e578063f8b81ef71461049d57610158565b806398da4c951461032b578063a22cb46514610360578063a9c326791461037c578063b88d4fde1461039e578063b953084e146103ba578063c52cc100146103d857610158565b806323b872dd1161011557806323b872dd1461024557806342842e0e146102615780636352211e1461027d57806370a08231146102ad5780637df124a1146102dd57806395d89b411461030d57610158565b806301ffc9a71461015d5780630665f9611461018d57806306fdde03146101ab578063081812fc146101c9578063095ea7b3146101f95780630fd7018114610215575b600080fd5b61017760048036038101906101729190613a03565b6104b9565b6040516101849190613a4b565b60405180910390f35b61019561059b565b6040516101a29190613b8c565b60405180910390f35b6101b36106f7565b6040516101c09190613bf8565b60405180910390f35b6101e360048036038101906101de9190613c46565b610789565b6040516101f09190613cb4565b60405180910390f35b610213600480360381019061020e9190613cfb565b6107cf565b005b61022f600480360381019061022a9190613c46565b6108e6565b60405161023c9190613cb4565b60405180910390f35b61025f600480360381019061025a9190613d3b565b610925565b005b61027b60048036038101906102769190613d3b565b610985565b005b61029760048036038101906102929190613c46565b6109a5565b6040516102a49190613cb4565b60405180910390f35b6102c760048036038101906102c29190613d8e565b610a2b565b6040516102d49190613dca565b60405180910390f35b6102f760048036038101906102f29190613d8e565b610ae2565b6040516103049190613dca565b60405180910390f35b610315610afa565b6040516103229190613bf8565b60405180910390f35b61034560048036038101906103409190613c46565b610b8c565b60405161035796959493929190613de5565b60405180910390f35b61037a60048036038101906103759190613e80565b610cd8565b005b610384610cee565b604051610395959493929190613ec0565b60405180910390f35b6103b860048036038101906103b39190614056565b610e22565b005b6103c2610e84565b6040516103cf919061422b565b60405180910390f35b6103e061102f565b6040516103ed9190613dca565b60405180910390f35b610410600480360381019061040b9190613c46565b611035565b60405161041d9190613bf8565b60405180910390f35b61042e611250565b60405161043b91906142dd565b60405180910390f35b61044c611428565b005b610468600480360381019061046391906142ff565b611c4f565b6040516104759190613a4b565b60405180910390f35b610486611ce3565b6040516104949291906143fd565b60405180910390f35b6104b760048036038101906104b29190613c46565b612012565b005b60007f80ac58cd000000000000000000000000000000000000000000000000000000007bffffffffffffffffffffffffffffffffffffffffffffffffffffffff1916827bffffffffffffffffffffffffffffffffffffffffffffffffffffffff1916148061058457507f5b5e139f000000000000000000000000000000000000000000000000000000007bffffffffffffffffffffffffffffffffffffffffffffffffffffffff1916827bffffffffffffffffffffffffffffffffffffffffffffffffffffffff1916145b80610594575061059382612519565b5b9050919050565b6105a3613932565b600d6040518060a00160405290816000820180546105c090614463565b80601f01602080910402602001604051908101604052809291908181526020018280546105ec90614463565b80156106395780601f1061060e57610100808354040283529160200191610639565b820191906000526020600020905b81548152906001019060200180831161061c57829003601f168201915b5050505050815260200160018201805461065290614463565b80601f016020809104026020016040519081016040528092919081815260200182805461067e90614463565b80156106cb5780601f106106a0576101008083540402835291602001916106cb565b820191906000526020600020905b8154815290600101906020018083116106ae57829003601f168201915b505050505081526020016002820154815260200160038201548152602001600482015481525050905090565b60606000805461070690614463565b80601f016020809104026020016040519081016040528092919081815260200182805461073290614463565b801561077f5780601f106107545761010080835404028352916020019161077f565b820191906000526020600020905b81548152906001019060200180831161076257829003601f168201915b5050505050905090565b600061079482612583565b6004600083815260200190815260200160002060009054906101000a900473ffffffffffffffffffffffffffffffffffffffff169050919050565b60006107da826109a5565b90508073ffffffffffffffffffffffffffffffffffffffff168373ffffffffffffffffffffffffffffffffffffffff160361084a576040517f08c379a000000000000000000000000000000000000000000000000000000000815260040161084190614506565b60405180910390fd5b8073ffffffffffffffffffffffffffffffffffffffff166108696125ce565b73ffffffffffffffffffffffffffffffffffffffff1614806108985750610897816108926125ce565b611c4f565b5b6108d7576040517f08c379a00000000000000000000000000000000000000000000000000000000081526004016108ce90614598565b60405180910390fd5b6108e183836125d6565b505050565b600a81815481106108f657600080fd5b906000526020600020016000915054906101000a900473ffffffffffffffffffffffffffffffffffffffff1681565b6109366109306125ce565b8261268f565b610975576040517f08c379a000000000000000000000000000000000000000000000000000000000815260040161096c9061462a565b60405180910390fd5b610980838383612724565b505050565b6109a083838360405180602001604052806000815250610e22565b505050565b6000806109b183612a1d565b9050600073ffffffffffffffffffffffffffffffffffffffff168173ffffffffffffffffffffffffffffffffffffffff1603610a22576040517f08c379a0000000000000000000000000000000000000000000000000000000008152600401610a1990614696565b60405180910390fd5b80915050919050565b60008073ffffffffffffffffffffffffffffffffffffffff168273ffffffffffffffffffffffffffffffffffffffff1603610a9b576040517f08c379a0000000000000000000000000000000000000000000000000000000008152600401610a9290614728565b60405180910390fd5b600360008373ffffffffffffffffffffffffffffffffffffffff1673ffffffffffffffffffffffffffffffffffffffff168152602001908152602001600020549050919050565b60096020528060005260406000206000915090505481565b606060018054610b0990614463565b80601f0160208091040260200160405190810160405280929190818152602001828054610b3590614463565b8015610b825780601f10610b5757610100808354040283529160200191610b82565b820191906000526020600020905b815481529060010190602001808311610b6557829003601f168201915b5050505050905090565b6008602052806000526040600020600091509050806000015490806001018054610bb590614463565b80601f0160208091040260200160405190810160405280929190818152602001828054610be190614463565b8015610c2e5780601f10610c0357610100808354040283529160200191610c2e565b820191906000526020600020905b815481529060010190602001808311610c1157829003601f168201915b505050505090806002018054610c4390614463565b80601f0160208091040260200160405190810160405280929190818152602001828054610c6f90614463565b8015610cbc5780601f10610c9157610100808354040283529160200191610cbc565b820191906000526020600020905b815481529060010190602001808311610c9f57829003601f168201915b5050505050908060030154908060040154908060050154905086565b610cea610ce36125ce565b8383612a5a565b5050565b600d806000018054610cff90614463565b80601f0160208091040260200160405190810160405280929190818152602001828054610d2b90614463565b8015610d785780601f10610d4d57610100808354040283529160200191610d78565b820191906000526020600020905b815481529060010190602001808311610d5b57829003601f168201915b505050505090806001018054610d8d90614463565b80601f0160208091040260200160405190810160405280929190818152602001828054610db990614463565b8015610e065780601f10610ddb57610100808354040283529160200191610e06565b820191906000526020600020905b815481529060010190602001808311610de957829003601f168201915b5050505050908060020154908060030154908060040154905085565b610e33610e2d6125ce565b8361268f565b610e72576040517f08c379a0000000000000000000000000000000000000000000000000000000008152600401610e699061462a565b60405180910390fd5b610e7e84848484612bc6565b50505050565b60606007805480602002602001604051908101604052809291908181526020016000905b8282101561102657838290600052602060002090600602016040518060c001604052908160008201548152602001600182018054610ee590614463565b80601f0160208091040260200160405190810160405280929190818152602001828054610f1190614463565b8015610f5e5780601f10610f3357610100808354040283529160200191610f5e565b820191906000526020600020905b815481529060010190602001808311610f4157829003601f168201915b50505050508152602001600282018054610f7790614463565b80601f0160208091040260200160405190810160405280929190818152602001828054610fa390614463565b8015610ff05780601f10610fc557610100808354040283529160200191610ff0565b820191906000526020600020905b815481529060010190602001808311610fd357829003601f168201915b50505050508152602001600382015481526020016004820154815260200160058201548152505081526020019060010190610ea8565b50505050905090565b600c5481565b60606000600860008481526020019081526020016000206040518060c00160405290816000820154815260200160018201805461107190614463565b80601f016020809104026020016040519081016040528092919081815260200182805461109d90614463565b80156110ea5780601f106110bf576101008083540402835291602001916110ea565b820191906000526020600020905b8154815290600101906020018083116110cd57829003601f168201915b5050505050815260200160028201805461110390614463565b80601f016020809104026020016040519081016040528092919081815260200182805461112f90614463565b801561117c5780601f106111515761010080835404028352916020019161117c565b820191906000526020600020905b81548152906001019060200180831161115f57829003601f168201915b505050505081526020016003820154815260200160048201548152602001600582015481525050905060006111b48260600151612c22565b905060006111c58360800151612c22565b905060006111d68460a00151612c22565b9050600061121c85602001516111eb89612c22565b876040015187878760405160200161120896959493929190614a56565b604051602081830303815290604052612cf0565b90506000816040516020016112319190614b47565b6040516020818303038152906040529050809650505050505050919050565b611258613961565b6000600960003373ffffffffffffffffffffffffffffffffffffffff1673ffffffffffffffffffffffffffffffffffffffff168152602001908152602001600020549050600081111561141757600860008281526020019081526020016000206040518060c0016040529081600082015481526020016001820180546112dd90614463565b80601f016020809104026020016040519081016040528092919081815260200182805461130990614463565b80156113565780601f1061132b57610100808354040283529160200191611356565b820191906000526020600020905b81548152906001019060200180831161133957829003601f168201915b5050505050815260200160028201805461136f90614463565b80601f016020809104026020016040519081016040528092919081815260200182805461139b90614463565b80156113e85780601f106113bd576101008083540402835291602001916113e8565b820191906000526020600020905b8154815290600101906020018083116113cb57829003601f168201915b505050505081526020016003820154815260200160048201548152602001600582015481525050915050611425565b61141f613961565b80925050505b90565b6000600960003373ffffffffffffffffffffffffffffffffffffffff1673ffffffffffffffffffffffffffffffffffffffff168152602001908152602001600020549050600060086000838152602001908152602001600020905061153b6040518060600160405280603c81526020016157da603c91398260010180546114ae90614463565b80601f01602080910402602001604051908101604052809291908181526020018280546114da90614463565b80156115275780601f106114fc57610100808354040283529160200191611527565b820191906000526020600020905b81548152906001019060200180831161150a57829003601f168201915b505050505083600301548460050154612e87565b6116136040518060400160405280601b81526020017f426f737320257320686173202573204a5020616e642025732041440000000000815250600d600001805461158490614463565b80601f01602080910402602001604051908101604052809291908181526020018280546115b090614463565b80156115fd5780601f106115d2576101008083540402835291602001916115fd565b820191906000526020600020905b8154815290600101906020018083116115e057829003601f168201915b5050505050600d60020154600d60040154612e87565b600081600301541161165a576040517f08c379a000000000000000000000000000000000000000000000000000000000815260040161165190614bdb565b60405180910390fd5b6000600d60020154116116a2576040517f08c379a000000000000000000000000000000000000000000000000000000000815260040161169990614c6d565b60405180910390fd5b6000808260050154600d600201541015611708576000600d600201819055506116ff6040518060400160405280601181526020017f54686520626f7373206973206465616421000000000000000000000000000000815250612f29565b60039150611954565b60426117146064612fc2565b1115611883578260050154600d6002015461172f9190614cbc565b600d6002018190555061187a6040518060600160405280602481526020016157b66024913984600101805461176390614463565b80601f016020809104026020016040519081016040528092919081815260200182805461178f90614463565b80156117dc5780601f106117b1576101008083540402835291602001916117dc565b820191906000526020600020905b8154815290600101906020018083116117bf57829003601f168201915b5050505050600d60000180546117f190614463565b80601f016020809104026020016040519081016040528092919081815260200182805461181d90614463565b801561186a5780601f1061183f5761010080835404028352916020019161186a565b820191906000526020600020905b81548152906001019060200180831161184d57829003601f168201915b5050505050600d6002015461301e565b60019150611953565b61194e6040518060400160405280600b81526020017f2573206d6973736564210a0000000000000000000000000000000000000000008152508460010180546118cb90614463565b80601f01602080910402602001604051908101604052809291908181526020018280546118f790614463565b80156119445780601f1061191957610100808354040283529160200191611944565b820191906000526020600020905b81548152906001019060200180831161192757829003601f168201915b50505050506130c0565b600291505b5b600d60040154836003015410156119b657600083600301819055506119ad6040518060400160405280601381526020017f54686520706c6179657220697320646561642100000000000000000000000000815250612f29565b60039050611c01565b60326119c26064612fc2565b1115611b2f57600d6004015483600301546119dd9190614cbc565b8360030181905550611b266040518060600160405280602e8152602001615844602e9139600d6000018054611a1190614463565b80601f0160208091040260200160405190810160405280929190818152602001828054611a3d90614463565b8015611a8a5780601f10611a5f57610100808354040283529160200191611a8a565b820191906000526020600020905b815481529060010190602001808311611a6d57829003601f168201915b5050505050856001018054611a9e90614463565b80601f0160208091040260200160405190810160405280929190818152602001828054611aca90614463565b8015611b175780601f10611aec57610100808354040283529160200191611b17565b820191906000526020600020905b815481529060010190602001808311611afa57829003601f168201915b5050505050866003015461301e565b60019050611c00565b611bfb6040518060400160405280601081526020017f426f7373202573206d6973736564210a00000000000000000000000000000000815250600d6000018054611b7890614463565b80601f0160208091040260200160405190810160405280929190818152602001828054611ba490614463565b8015611bf15780601f10611bc657610100808354040283529160200191611bf1565b820191906000526020600020905b815481529060010190602001808311611bd457829003601f168201915b50505050506130c0565b600290505b5b7fbcfb3d0af56b3d54985b1a7fdab72e634ea6c430c7143d77492c431bb2081b0c33600d6002015485600301548585604051611c41959493929190614cf0565b60405180910390a150505050565b6000600560008473ffffffffffffffffffffffffffffffffffffffff1673ffffffffffffffffffffffffffffffffffffffff16815260200190815260200160002060008373ffffffffffffffffffffffffffffffffffffffff1673ffffffffffffffffffffffffffffffffffffffff16815260200190815260200160002060009054906101000a900460ff16905092915050565b6060806000600a8054905067ffffffffffffffff811115611d0757611d06613f2b565b5b604051908082528060200260200182016040528015611d4057816020015b611d2d613961565b815260200190600190039081611d255790505b50905060005b600a80549050811015611f7d576000600a8281548110611d6957611d68614d43565b5b9060005260206000200160009054906101000a900473ffffffffffffffffffffffffffffffffffffffff1690506000600960008373ffffffffffffffffffffffffffffffffffffffff1673ffffffffffffffffffffffffffffffffffffffff1681526020019081526020016000205490506000600860008381526020019081526020016000206040518060c001604052908160008201548152602001600182018054611e1490614463565b80601f0160208091040260200160405190810160405280929190818152602001828054611e4090614463565b8015611e8d5780601f10611e6257610100808354040283529160200191611e8d565b820191906000526020600020905b815481529060010190602001808311611e7057829003601f168201915b50505050508152602001600282018054611ea690614463565b80601f0160208091040260200160405190810160405280929190818152602001828054611ed290614463565b8015611f1f5780601f10611ef457610100808354040283529160200191611f1f565b820191906000526020600020905b815481529060010190602001808311611f0257829003601f168201915b505050505081526020016003820154815260200160048201548152602001600582015481525050905080858581518110611f5c57611f5b614d43565b5b60200260200101819052505050508080611f7590614d72565b915050611d46565b50600a818180548060200260200160405190810160405280929190818152602001828054801561200257602002820191906000526020600020905b8160009054906101000a900473ffffffffffffffffffffffffffffffffffffffff1673ffffffffffffffffffffffffffffffffffffffff1681526020019060010190808311611fb8575b5050505050915092509250509091565b600061201e600661315c565b905061202a338261316a565b6040518060c001604052808381526020016007848154811061204f5761204e614d43565b5b9060005260206000209060060201600101805461206b90614463565b80601f016020809104026020016040519081016040528092919081815260200182805461209790614463565b80156120e45780601f106120b9576101008083540402835291602001916120e4565b820191906000526020600020905b8154815290600101906020018083116120c757829003601f168201915b505050505081526020016007848154811061210257612101614d43565b5b9060005260206000209060060201600201805461211e90614463565b80601f016020809104026020016040519081016040528092919081815260200182805461214a90614463565b80156121975780601f1061216c57610100808354040283529160200191612197565b820191906000526020600020905b81548152906001019060200180831161217a57829003601f168201915b50505050508152602001600784815481106121b5576121b4614d43565b5b9060005260206000209060060201600301548152602001600784815481106121e0576121df614d43565b5b90600052602060002090600602016004015481526020016007848154811061220b5761220a614d43565b5b906000526020600020906006020160050154815250600860008381526020019081526020016000206000820151816000015560208201518160010190816122529190614f66565b5060408201518160020190816122689190614f66565b50606082015181600301556080820151816004015560a082015181600501559050506122ad6040518060600160405280602e8152602001615816602e91398284613188565b80600960003373ffffffffffffffffffffffffffffffffffffffff1673ffffffffffffffffffffffffffffffffffffffff16815260200190815260200160002081905550600b60003373ffffffffffffffffffffffffffffffffffffffff1673ffffffffffffffffffffffffffffffffffffffff16815260200190815260200160002060009054906101000a900460ff1661241857600a339080600181540180825580915050600190039060005260206000200160009091909190916101000a81548173ffffffffffffffffffffffffffffffffffffffff021916908373ffffffffffffffffffffffffffffffffffffffff1602179055506001600b60003373ffffffffffffffffffffffffffffffffffffffff1673ffffffffffffffffffffffffffffffffffffffff16815260200190815260200160002060006101000a81548160ff0219169083151502179055506001600c60008282546124109190615038565b925050819055505b6124226006612503565b7f4bc303fd457a97b4691b9af582ce71868a3d258638c8d4f8c60988a0f0bfb8cd3382846040516124559392919061506c565b60405180910390a15050565b6124fd8484848460405160240161247b94939291906150a3565b6040516020818303038152906040527f5d1a971a000000000000000000000000000000000000000000000000000000007bffffffffffffffffffffffffffffffffffffffffffffffffffffffff19166020820180517bffffffffffffffffffffffffffffffffffffffffffffffffffffffff8381831617835250505050613227565b50505050565b6001816000016000828254019250508190555050565b60007f01ffc9a7000000000000000000000000000000000000000000000000000000007bffffffffffffffffffffffffffffffffffffffffffffffffffffffff1916827bffffffffffffffffffffffffffffffffffffffffffffffffffffffff1916149050919050565b61258c81613250565b6125cb576040517f08c379a00000000000000000000000000000000000000000000000000000000081526004016125c290614696565b60405180910390fd5b50565b600033905090565b816004600083815260200190815260200160002060006101000a81548173ffffffffffffffffffffffffffffffffffffffff021916908373ffffffffffffffffffffffffffffffffffffffff160217905550808273ffffffffffffffffffffffffffffffffffffffff16612649836109a5565b73ffffffffffffffffffffffffffffffffffffffff167f8c5be1e5ebec7d5bd14f71427d1e84f3dd0314c0f7b2291e5b200ac8c7c3b92560405160405180910390a45050565b60008061269b836109a5565b90508073ffffffffffffffffffffffffffffffffffffffff168473ffffffffffffffffffffffffffffffffffffffff1614806126dd57506126dc8185611c4f565b5b8061271b57508373ffffffffffffffffffffffffffffffffffffffff1661270384610789565b73ffffffffffffffffffffffffffffffffffffffff16145b91505092915050565b8273ffffffffffffffffffffffffffffffffffffffff16612744826109a5565b73ffffffffffffffffffffffffffffffffffffffff161461279a576040517f08c379a00000000000000000000000000000000000000000000000000000000081526004016127919061516f565b60405180910390fd5b600073ffffffffffffffffffffffffffffffffffffffff168273ffffffffffffffffffffffffffffffffffffffff1603612809576040517f08c379a000000000000000000000000000000000000000000000000000000000815260040161280090615201565b60405180910390fd5b6128168383836001613291565b8273ffffffffffffffffffffffffffffffffffffffff16612836826109a5565b73ffffffffffffffffffffffffffffffffffffffff161461288c576040517f08c379a00000000000000000000000000000000000000000000000000000000081526004016128839061516f565b60405180910390fd5b6004600082815260200190815260200160002060006101000a81549073ffffffffffffffffffffffffffffffffffffffff02191690556001600360008573ffffffffffffffffffffffffffffffffffffffff1673ffffffffffffffffffffffffffffffffffffffff168152602001908152602001600020600082825403925050819055506001600360008473ffffffffffffffffffffffffffffffffffffffff1673ffffffffffffffffffffffffffffffffffffffff16815260200190815260200160002060008282540192505081905550816002600083815260200190815260200160002060006101000a81548173ffffffffffffffffffffffffffffffffffffffff021916908373ffffffffffffffffffffffffffffffffffffffff160217905550808273ffffffffffffffffffffffffffffffffffffffff168473ffffffffffffffffffffffffffffffffffffffff167fddf252ad1be2c89b69c2b068fc378daa952ba7f163c4a11628f55a4df523b3ef60405160405180910390a4612a1883838360016133b7565b505050565b60006002600083815260200190815260200160002060009054906101000a900473ffffffffffffffffffffffffffffffffffffffff169050919050565b8173ffffffffffffffffffffffffffffffffffffffff168373ffffffffffffffffffffffffffffffffffffffff1603612ac8576040517f08c379a0000000000000000000000000000000000000000000000000000000008152600401612abf9061526d565b60405180910390fd5b80600560008573ffffffffffffffffffffffffffffffffffffffff1673ffffffffffffffffffffffffffffffffffffffff16815260200190815260200160002060008473ffffffffffffffffffffffffffffffffffffffff1673ffffffffffffffffffffffffffffffffffffffff16815260200190815260200160002060006101000a81548160ff0219169083151502179055508173ffffffffffffffffffffffffffffffffffffffff168373ffffffffffffffffffffffffffffffffffffffff167f17307eab39ab6107e8899845ad3d59bd9653f200f220920489ca2b5937696c3183604051612bb99190613a4b565b60405180910390a3505050565b612bd1848484612724565b612bdd848484846133bd565b612c1c576040517f08c379a0000000000000000000000000000000000000000000000000000000008152600401612c13906152ff565b60405180910390fd5b50505050565b606060006001612c3184613544565b01905060008167ffffffffffffffff811115612c5057612c4f613f2b565b5b6040519080825280601f01601f191660200182016040528015612c825781602001600182028036833780820191505090505b509050600082602001820190505b600115612ce5578080600190039150507f3031323334353637383961626364656600000000000000000000000000000000600a86061a8153600a8581612cd957612cd861531f565b5b04945060008503612c90575b819350505050919050565b606060008251905060008103612d185760405180602001604052806000815250915050612e82565b60006003600283612d299190615038565b612d33919061534e565b6004612d3f919061537f565b90506000602082612d509190615038565b67ffffffffffffffff811115612d6957612d68613f2b565b5b6040519080825280601f01601f191660200182016040528015612d9b5781602001600182028036833780820191505090505b5090506000604051806060016040528060408152602001615776604091399050600181016020830160005b86811015612e3f5760038101905062ffffff818a015116603f8160121c168401518060081b905060ff603f83600c1c1686015116810190508060081b905060ff603f8360061c1686015116810190508060081b905060ff603f831686015116810190508060e01b90508084526004840193505050612dc6565b506003860660018114612e595760028114612e6957612e74565b613d3d60f01b6002830352612e74565b603d60f81b60018303525b508484525050819450505050505b919050565b612f2384848484604051602401612ea194939291906153c1565b6040516020818303038152906040527ff45d7d2c000000000000000000000000000000000000000000000000000000007bffffffffffffffffffffffffffffffffffffffffffffffffffffffff19166020820180517bffffffffffffffffffffffffffffffffffffffffffffffffffffffff8381831617835250505050613227565b50505050565b612fbf81604051602401612f3d9190613bf8565b6040516020818303038152906040527f41304fac000000000000000000000000000000000000000000000000000000007bffffffffffffffffffffffffffffffffffffffffffffffffffffffff19166020820180517bffffffffffffffffffffffffffffffffffffffffffffffffffffffff8381831617835250505050613227565b50565b600060126000815480929190612fd790614d72565b9190505550814233601254604051602001612ff49392919061547d565b6040516020818303038152906040528051906020012060001c61301791906154ba565b9050919050565b6130ba8484848460405160240161303894939291906154eb565b6040516020818303038152906040527f8eafb02b000000000000000000000000000000000000000000000000000000007bffffffffffffffffffffffffffffffffffffffffffffffffffffffff19166020820180517bffffffffffffffffffffffffffffffffffffffffffffffffffffffff8381831617835250505050613227565b50505050565b61315882826040516024016130d6929190615545565b6040516020818303038152906040527f4b5c4277000000000000000000000000000000000000000000000000000000007bffffffffffffffffffffffffffffffffffffffffffffffffffffffff19166020820180517bffffffffffffffffffffffffffffffffffffffffffffffffffffffff8381831617835250505050613227565b5050565b600081600001549050919050565b613184828260405180602001604052806000815250613697565b5050565b6132228383836040516024016131a09392919061557c565b6040516020818303038152906040527fca47c4eb000000000000000000000000000000000000000000000000000000007bffffffffffffffffffffffffffffffffffffffffffffffffffffffff19166020820180517bffffffffffffffffffffffffffffffffffffffffffffffffffffffff8381831617835250505050613227565b505050565b60008151905060006a636f6e736f6c652e6c6f679050602083016000808483855afa5050505050565b60008073ffffffffffffffffffffffffffffffffffffffff1661327283612a1d565b73ffffffffffffffffffffffffffffffffffffffff1614159050919050565b60018111156133b157600073ffffffffffffffffffffffffffffffffffffffff168473ffffffffffffffffffffffffffffffffffffffff16146133255780600360008673ffffffffffffffffffffffffffffffffffffffff1673ffffffffffffffffffffffffffffffffffffffff168152602001908152602001600020600082825461331d9190614cbc565b925050819055505b600073ffffffffffffffffffffffffffffffffffffffff168373ffffffffffffffffffffffffffffffffffffffff16146133b05780600360008573ffffffffffffffffffffffffffffffffffffffff1673ffffffffffffffffffffffffffffffffffffffff16815260200190815260200160002060008282546133a89190615038565b925050819055505b5b50505050565b50505050565b60006133de8473ffffffffffffffffffffffffffffffffffffffff166136f2565b15613537578373ffffffffffffffffffffffffffffffffffffffff1663150b7a026134076125ce565b8786866040518563ffffffff1660e01b8152600401613429949392919061560f565b6020604051808303816000875af192505050801561346557506040513d601f19601f820116820180604052508101906134629190615670565b60015b6134e7573d8060008114613495576040519150601f19603f3d011682016040523d82523d6000602084013e61349a565b606091505b5060008151036134df576040517f08c379a00000000000000000000000000000000000000000000000000000000081526004016134d6906152ff565b60405180910390fd5b805181602001fd5b63150b7a0260e01b7bffffffffffffffffffffffffffffffffffffffffffffffffffffffff1916817bffffffffffffffffffffffffffffffffffffffffffffffffffffffff19161491505061353c565b600190505b949350505050565b600080600090507a184f03e93ff9f4daa797ed6e38ed64bf6a1f01000000000000000083106135a2577a184f03e93ff9f4daa797ed6e38ed64bf6a1f01000000000000000083816135985761359761531f565b5b0492506040810190505b6d04ee2d6d415b85acef810000000083106135df576d04ee2d6d415b85acef810000000083816135d5576135d461531f565b5b0492506020810190505b662386f26fc10000831061360e57662386f26fc1000083816136045761360361531f565b5b0492506010810190505b6305f5e1008310613637576305f5e100838161362d5761362c61531f565b5b0492506008810190505b612710831061365c5761271083816136525761365161531f565b5b0492506004810190505b6064831061367f57606483816136755761367461531f565b5b0492506002810190505b600a831061368e576001810190505b80915050919050565b6136a18383613715565b6136ae60008484846133bd565b6136ed576040517f08c379a00000000000000000000000000000000000000000000000000000000081526004016136e4906152ff565b60405180910390fd5b505050565b6000808273ffffffffffffffffffffffffffffffffffffffff163b119050919050565b600073ffffffffffffffffffffffffffffffffffffffff168273ffffffffffffffffffffffffffffffffffffffff1603613784576040517f08c379a000000000000000000000000000000000000000000000000000000000815260040161377b906156e9565b60405180910390fd5b61378d81613250565b156137cd576040517f08c379a00000000000000000000000000000000000000000000000000000000081526004016137c490615755565b60405180910390fd5b6137db600083836001613291565b6137e481613250565b15613824576040517f08c379a000000000000000000000000000000000000000000000000000000000815260040161381b90615755565b60405180910390fd5b6001600360008473ffffffffffffffffffffffffffffffffffffffff1673ffffffffffffffffffffffffffffffffffffffff16815260200190815260200160002060008282540192505081905550816002600083815260200190815260200160002060006101000a81548173ffffffffffffffffffffffffffffffffffffffff021916908373ffffffffffffffffffffffffffffffffffffffff160217905550808273ffffffffffffffffffffffffffffffffffffffff16600073ffffffffffffffffffffffffffffffffffffffff167fddf252ad1be2c89b69c2b068fc378daa952ba7f163c4a11628f55a4df523b3ef60405160405180910390a461392e6000838360016133b7565b5050565b6040518060a0016040528060608152602001606081526020016000815260200160008152602001600081525090565b6040518060c001604052806000815260200160608152602001606081526020016000815260200160008152602001600081525090565b6000604051905090565b600080fd5b600080fd5b60007fffffffff0000000000000000000000000000000000000000000000000000000082169050919050565b6139e0816139ab565b81146139eb57600080fd5b50565b6000813590506139fd816139d7565b92915050565b600060208284031215613a1957613a186139a1565b5b6000613a27848285016139ee565b91505092915050565b60008115159050919050565b613a4581613a30565b82525050565b6000602082019050613a606000830184613a3c565b92915050565b600081519050919050565b600082825260208201905092915050565b60005b83811015613aa0578082015181840152602081019050613a85565b60008484015250505050565b6000601f19601f8301169050919050565b6000613ac882613a66565b613ad28185613a71565b9350613ae2818560208601613a82565b613aeb81613aac565b840191505092915050565b6000819050919050565b613b0981613af6565b82525050565b600060a0830160008301518482036000860152613b2c8282613abd565b91505060208301518482036020860152613b468282613abd565b9150506040830151613b5b6040860182613b00565b506060830151613b6e6060860182613b00565b506080830151613b816080860182613b00565b508091505092915050565b60006020820190508181036000830152613ba68184613b0f565b905092915050565b600082825260208201905092915050565b6000613bca82613a66565b613bd48185613bae565b9350613be4818560208601613a82565b613bed81613aac565b840191505092915050565b60006020820190508181036000830152613c128184613bbf565b905092915050565b613c2381613af6565b8114613c2e57600080fd5b50565b600081359050613c4081613c1a565b92915050565b600060208284031215613c5c57613c5b6139a1565b5b6000613c6a84828501613c31565b91505092915050565b600073ffffffffffffffffffffffffffffffffffffffff82169050919050565b6000613c9e82613c73565b9050919050565b613cae81613c93565b82525050565b6000602082019050613cc96000830184613ca5565b92915050565b613cd881613c93565b8114613ce357600080fd5b50565b600081359050613cf581613ccf565b92915050565b60008060408385031215613d1257613d116139a1565b5b6000613d2085828601613ce6565b9250506020613d3185828601613c31565b9150509250929050565b600080600060608486031215613d5457613d536139a1565b5b6000613d6286828701613ce6565b9350506020613d7386828701613ce6565b9250506040613d8486828701613c31565b9150509250925092565b600060208284031215613da457613da36139a1565b5b6000613db284828501613ce6565b91505092915050565b613dc481613af6565b82525050565b6000602082019050613ddf6000830184613dbb565b92915050565b600060c082019050613dfa6000830189613dbb565b8181036020830152613e0c8188613bbf565b90508181036040830152613e208187613bbf565b9050613e2f6060830186613dbb565b613e3c6080830185613dbb565b613e4960a0830184613dbb565b979650505050505050565b613e5d81613a30565b8114613e6857600080fd5b50565b600081359050613e7a81613e54565b92915050565b60008060408385031215613e9757613e966139a1565b5b6000613ea585828601613ce6565b9250506020613eb685828601613e6b565b9150509250929050565b600060a0820190508181036000830152613eda8188613bbf565b90508181036020830152613eee8187613bbf565b9050613efd6040830186613dbb565b613f0a6060830185613dbb565b613f176080830184613dbb565b9695505050505050565b600080fd5b600080fd5b7f4e487b7100000000000000000000000000000000000000000000000000000000600052604160045260246000fd5b613f6382613aac565b810181811067ffffffffffffffff82111715613f8257613f81613f2b565b5b80604052505050565b6000613f95613997565b9050613fa18282613f5a565b919050565b600067ffffffffffffffff821115613fc157613fc0613f2b565b5b613fca82613aac565b9050602081019050919050565b82818337600083830152505050565b6000613ff9613ff484613fa6565b613f8b565b90508281526020810184848401111561401557614014613f26565b5b614020848285613fd7565b509392505050565b600082601f83011261403d5761403c613f21565b5b813561404d848260208601613fe6565b91505092915050565b600080600080608085870312156140705761406f6139a1565b5b600061407e87828801613ce6565b945050602061408f87828801613ce6565b93505060406140a087828801613c31565b925050606085013567ffffffffffffffff8111156140c1576140c06139a6565b5b6140cd87828801614028565b91505092959194509250565b600081519050919050565b600082825260208201905092915050565b6000819050602082019050919050565b600060c08301600083015161411d6000860182613b00565b50602083015184820360208601526141358282613abd565b9150506040830151848203604086015261414f8282613abd565b91505060608301516141646060860182613b00565b5060808301516141776080860182613b00565b5060a083015161418a60a0860182613b00565b508091505092915050565b60006141a18383614105565b905092915050565b6000602082019050919050565b60006141c1826140d9565b6141cb81856140e4565b9350836020820285016141dd856140f5565b8060005b8581101561421957848403895281516141fa8582614195565b9450614205836141a9565b925060208a019950506001810190506141e1565b50829750879550505050505092915050565b6000602082019050818103600083015261424581846141b6565b905092915050565b600060c0830160008301516142656000860182613b00565b506020830151848203602086015261427d8282613abd565b915050604083015184820360408601526142978282613abd565b91505060608301516142ac6060860182613b00565b5060808301516142bf6080860182613b00565b5060a08301516142d260a0860182613b00565b508091505092915050565b600060208201905081810360008301526142f7818461424d565b905092915050565b60008060408385031215614316576143156139a1565b5b600061432485828601613ce6565b925050602061433585828601613ce6565b9150509250929050565b600081519050919050565b600082825260208201905092915050565b6000819050602082019050919050565b61437481613c93565b82525050565b6000614386838361436b565b60208301905092915050565b6000602082019050919050565b60006143aa8261433f565b6143b4818561434a565b93506143bf8361435b565b8060005b838110156143f05781516143d7888261437a565b97506143e283614392565b9250506001810190506143c3565b5085935050505092915050565b60006040820190508181036000830152614417818561439f565b9050818103602083015261442b81846141b6565b90509392505050565b7f4e487b7100000000000000000000000000000000000000000000000000000000600052602260045260246000fd5b6000600282049050600182168061447b57607f821691505b60208210810361448e5761448d614434565b5b50919050565b7f4552433732313a20617070726f76616c20746f2063757272656e74206f776e6560008201527f7200000000000000000000000000000000000000000000000000000000000000602082015250565b60006144f0602183613bae565b91506144fb82614494565b604082019050919050565b6000602082019050818103600083015261451f816144e3565b9050919050565b7f4552433732313a20617070726f76652063616c6c6572206973206e6f7420746f60008201527f6b656e206f776e6572206f7220617070726f76656420666f7220616c6c000000602082015250565b6000614582603d83613bae565b915061458d82614526565b604082019050919050565b600060208201905081810360008301526145b181614575565b9050919050565b7f4552433732313a2063616c6c6572206973206e6f7420746f6b656e206f776e6560008201527f72206f7220617070726f76656400000000000000000000000000000000000000602082015250565b6000614614602d83613bae565b915061461f826145b8565b604082019050919050565b6000602082019050818103600083015261464381614607565b9050919050565b7f4552433732313a20696e76616c696420746f6b656e2049440000000000000000600082015250565b6000614680601883613bae565b915061468b8261464a565b602082019050919050565b600060208201905081810360008301526146af81614673565b9050919050565b7f4552433732313a2061646472657373207a65726f206973206e6f74206120766160008201527f6c6964206f776e65720000000000000000000000000000000000000000000000602082015250565b6000614712602983613bae565b915061471d826146b6565b604082019050919050565b6000602082019050818103600083015261474181614705565b9050919050565b600081905092915050565b7f7b226e616d65223a202200000000000000000000000000000000000000000000600082015250565b6000614789600a83614748565b915061479482614753565b600a82019050919050565b60006147aa82613a66565b6147b48185614748565b93506147c4818560208601613a82565b80840191505092915050565b7f202d2d204e465420233a20000000000000000000000000000000000000000000600082015250565b6000614806600b83614748565b9150614811826147d0565b600b82019050919050565b7f222c20226465736372697074696f6e223a20225468697320697320616e204e4660008201527f542074686174206c6574732070656f706c6520706c617920696e20746865206760208201527f616d65204368726973746d6173204a6f7920537072656164657221222c20226960408201527f6d616765223a2022697066733a2f2f0000000000000000000000000000000000606082015250565b60006148c4606f83614748565b91506148cf8261481c565b606f82019050919050565b7f222c202261747472696275746573223a205b207b202274726169745f7479706560008201527f223a20224a6f7920506f696e7473222c202276616c7565223a20000000000000602082015250565b6000614936603a83614748565b9150614941826148da565b603a82019050919050565b7f2c20226d61785f76616c7565223a000000000000000000000000000000000000600082015250565b6000614982600e83614748565b915061498d8261494c565b600e82019050919050565b7f7d2c207b202274726169745f74797065223a202241747461636b2044616d616760008201527f65222c202276616c7565223a2000000000000000000000000000000000000000602082015250565b60006149f4602d83614748565b91506149ff82614998565b602d82019050919050565b7f7d205d7d00000000000000000000000000000000000000000000000000000000600082015250565b6000614a40600483614748565b9150614a4b82614a0a565b600482019050919050565b6000614a618261477c565b9150614a6d828961479f565b9150614a78826147f9565b9150614a84828861479f565b9150614a8f826148b7565b9150614a9b828761479f565b9150614aa682614929565b9150614ab2828661479f565b9150614abd82614975565b9150614ac9828561479f565b9150614ad4826149e7565b9150614ae0828461479f565b9150614aeb82614a33565b9150819050979650505050505050565b7f646174613a6170706c69636174696f6e2f6a736f6e3b6261736536342c000000600082015250565b6000614b31601d83614748565b9150614b3c82614afb565b601d82019050919050565b6000614b5282614b24565b9150614b5e828461479f565b915081905092915050565b7f4572726f723a20636861726163746572206d7573742068617665204a5020746f60008201527f2061747461636b20626f73732e00000000000000000000000000000000000000602082015250565b6000614bc5602d83613bae565b9150614bd082614b69565b604082019050919050565b60006020820190508181036000830152614bf481614bb8565b9050919050565b7f4572726f723a20626f7373206d7573742068617665204a5020746f206174746160008201527f636b206368617261637465722e00000000000000000000000000000000000000602082015250565b6000614c57602d83613bae565b9150614c6282614bfb565b604082019050919050565b60006020820190508181036000830152614c8681614c4a565b9050919050565b7f4e487b7100000000000000000000000000000000000000000000000000000000600052601160045260246000fd5b6000614cc782613af6565b9150614cd283613af6565b9250828203905081811115614cea57614ce9614c8d565b5b92915050565b600060a082019050614d056000830188613ca5565b614d126020830187613dbb565b614d1f6040830186613dbb565b614d2c6060830185613dbb565b614d396080830184613dbb565b9695505050505050565b7f4e487b7100000000000000000000000000000000000000000000000000000000600052603260045260246000fd5b6000614d7d82613af6565b91507fffffffffffffffffffffffffffffffffffffffffffffffffffffffffffffffff8203614daf57614dae614c8d565b5b600182019050919050565b60008190508160005260206000209050919050565b60006020601f8301049050919050565b600082821b905092915050565b600060088302614e1c7fffffffffffffffffffffffffffffffffffffffffffffffffffffffffffffffff82614ddf565b614e268683614ddf565b95508019841693508086168417925050509392505050565b6000819050919050565b6000614e63614e5e614e5984613af6565b614e3e565b613af6565b9050919050565b6000819050919050565b614e7d83614e48565b614e91614e8982614e6a565b848454614dec565b825550505050565b600090565b614ea6614e99565b614eb1818484614e74565b505050565b5b81811015614ed557614eca600082614e9e565b600181019050614eb7565b5050565b601f821115614f1a57614eeb81614dba565b614ef484614dcf565b81016020851015614f03578190505b614f17614f0f85614dcf565b830182614eb6565b50505b505050565b600082821c905092915050565b6000614f3d60001984600802614f1f565b1980831691505092915050565b6000614f568383614f2c565b9150826002028217905092915050565b614f6f82613a66565b67ffffffffffffffff811115614f8857614f87613f2b565b5b614f928254614463565b614f9d828285614ed9565b600060209050601f831160018114614fd05760008415614fbe578287015190505b614fc88582614f4a565b865550615030565b601f198416614fde86614dba565b60005b8281101561500657848901518255600182019150602085019450602081019050614fe1565b86831015615023578489015161501f601f891682614f2c565b8355505b6001600288020188555050505b505050505050565b600061504382613af6565b915061504e83613af6565b925082820190508082111561506657615065614c8d565b5b92915050565b60006060820190506150816000830186613ca5565b61508e6020830185613dbb565b61509b6040830184613dbb565b949350505050565b600060808201905081810360008301526150bd8187613bbf565b905081810360208301526150d18186613bbf565b90506150e06040830185613dbb565b81810360608301526150f28184613bbf565b905095945050505050565b7f4552433732313a207472616e736665722066726f6d20696e636f72726563742060008201527f6f776e6572000000000000000000000000000000000000000000000000000000602082015250565b6000615159602583613bae565b9150615164826150fd565b604082019050919050565b600060208201905081810360008301526151888161514c565b9050919050565b7f4552433732313a207472616e7366657220746f20746865207a65726f2061646460008201527f7265737300000000000000000000000000000000000000000000000000000000602082015250565b60006151eb602483613bae565b91506151f68261518f565b604082019050919050565b6000602082019050818103600083015261521a816151de565b9050919050565b7f4552433732313a20617070726f766520746f2063616c6c657200000000000000600082015250565b6000615257601983613bae565b915061526282615221565b602082019050919050565b600060208201905081810360008301526152868161524a565b9050919050565b7f4552433732313a207472616e7366657220746f206e6f6e20455243373231526560008201527f63656976657220696d706c656d656e7465720000000000000000000000000000602082015250565b60006152e9603283613bae565b91506152f48261528d565b604082019050919050565b60006020820190508181036000830152615318816152dc565b9050919050565b7f4e487b7100000000000000000000000000000000000000000000000000000000600052601260045260246000fd5b600061535982613af6565b915061536483613af6565b9250826153745761537361531f565b5b828204905092915050565b600061538a82613af6565b915061539583613af6565b92508282026153a381613af6565b915082820484148315176153ba576153b9614c8d565b5b5092915050565b600060808201905081810360008301526153db8187613bbf565b905081810360208301526153ef8186613bbf565b90506153fe6040830185613dbb565b61540b6060830184613dbb565b95945050505050565b6000819050919050565b61542f61542a82613af6565b615414565b82525050565b60008160601b9050919050565b600061544d82615435565b9050919050565b600061545f82615442565b9050919050565b61547761547282613c93565b615454565b82525050565b6000615489828661541e565b6020820191506154998285615466565b6014820191506154a9828461541e565b602082019150819050949350505050565b60006154c582613af6565b91506154d083613af6565b9250826154e0576154df61531f565b5b828206905092915050565b600060808201905081810360008301526155058187613bbf565b905081810360208301526155198186613bbf565b9050818103604083015261552d8185613bbf565b905061553c6060830184613dbb565b95945050505050565b6000604082019050818103600083015261555f8185613bbf565b905081810360208301526155738184613bbf565b90509392505050565b600060608201905081810360008301526155968186613bbf565b90506155a56020830185613dbb565b6155b26040830184613dbb565b949350505050565b600081519050919050565b600082825260208201905092915050565b60006155e1826155ba565b6155eb81856155c5565b93506155fb818560208601613a82565b61560481613aac565b840191505092915050565b60006080820190506156246000830187613ca5565b6156316020830186613ca5565b61563e6040830185613dbb565b818103606083015261565081846155d6565b905095945050505050565b60008151905061566a816139d7565b92915050565b600060208284031215615686576156856139a1565b5b60006156948482850161565b565b91505092915050565b7f4552433732313a206d696e7420746f20746865207a65726f2061646472657373600082015250565b60006156d3602083613bae565b91506156de8261569d565b602082019050919050565b60006020820190508181036000830152615702816156c6565b9050919050565b7f4552433732313a20746f6b656e20616c7265616479206d696e74656400000000600082015250565b600061573f601c83613bae565b915061574a82615709565b602082019050919050565b6000602082019050818103600083015261576e81615732565b905091905056fe4142434445464748494a4b4c4d4e4f505152535455565758595a6162636465666768696a6b6c6d6e6f707172737475767778797a303132333435363738392b2f25732061747461636b656420626f73732025732e204e657720626f7373204a503a2025730a506c6179657220772f206368617261637465722025732061626f757420746f2061747461636b2e20486173202573204a5020616e642025732041444d696e746564204e465420772f20746f6b656e496420257320616e6420636861726163746572496e646578202573426f73732025732061747461636b656420706c617965722025732e204e657720706c61796572204a503a2025730aa2646970667358221220a6a93f56e0a3ef8a849609f6eb1a4ad1b4bb94a55aa839643a2725cb6998f7d564736f6c63430008110033446f6e6520696e697469616c697a696e6720626f737320257320772f204a502025732c20696d67202573446f6e6520696e697469616c697a696e6720257320772f204a6f79506f696e74732025732c20696d67202573",
  "linkReferences": {},
  "deployedLinkReferences": {}
}